:020000040800F2
:10000000F40F002019020008170200081702000868
:10001000170200081702000817020008000000007D
:1000200000000000000000000000000017020008AF
:10003000170200080000000017020008E905000888
:10004000170200081702000817020008170200082C
:10005000170200081702000817020008170200081C
:10006000170200081702000817020008170200080C
:1000700017020008170200081702000817020008FC
:10008000170200081702000817020008000000000D
:10009000000000000000000000000000170200083F
:1000A00017020008170200081702000817020008CC
:1000B00017020008170200081702000817020008BC
:1000C00017020008170200081702000817020008AC
:1000D0001702000851030008170200081702000861
:1000E00017020008170200081702000800000000AD
:1000F0000000000000000000000000000000000000
:1001000000000000000000000000000000000000EF
:100110000000000000000000FD0D000817020008AC
:100120005FF808F1224A038890429BB212D002F590
:10013000006290420ED0B0F1804F0BD0A2F5983201
:10014000904207D002F58062904203D002F58062AF
:10015000904203D14A8823F070031343154A90421A
:1001600008D002F5806290421FBF23F44073CA8812
:100170009BB2134303808B8883850B8803850C4BCC
:1001800098420FD003F5006398420BD003F540630B
:10019000984207D003F58063984203D003F580634B
:1001A000984201D10B7A038601238382704700BFF6
:1001B000002C0140001000404FF6FF7383800023A5
:1001C0000380C380438003727047038819B19BB2D8
:1001D00043F0010303E023F001031B041B0C038025
:1001E000704783899BB20AB1194301E023EA0101F8
:1001F00081817047FFF7F5BF838823F070031B04EC
:100200001B0C838083889BB2194381807047C9434C
:1002100089B201827047FEE708B50C4A0C4B0D49C4
:100220008B4204D252F8040F43F8040BF8E70A4853
:100230000A494FF000028842B8BF40F8042BFADBAD
:1002400000F014F8BDE8084000F0DAB9BC4B010832
:10025000000000208C0800208C080020F40B0020F7
:10026000EFF31080704780F310887047314B82B0F5
:100270001A6842F001021A6059682F4A0A405A600F
:100280001A6822F0847222F480321A601A6822F40A
:1002900080221A605A6822F4FE025A604FF41F024C
:1002A0009A600022DA62009201921A6842F4803267
:1002B0001A601A6802F400320192009A0132009228
:1002C000019A1AB9009AB2F5A06FF2D11A6812F425
:1002D000003218BF01220192019A012A05D0174B62
:1002E0004FF000629A6002B070475A685A605A68CC
:1002F0005A605A685A605A6822F47C125A605A68E6
:1003000042F498125A601A6842F080721A601968B2
:10031000084A8901FBD5516821F0030151605168F9
:1003200041F0020151605A6802F00C02082AFAD129
:10033000D5E700BF001002400000FFF800ED00E02C
:10034000012240F22771014800F02FBB0038014024
:1003500010B520212F4800F048FB012824D12D485A
:1003600000F03FFB2C4A1368F3B1597AE1B9DB681E
:1003700018701368DA680132DA60D9689A699142B4
:1003800004BF5A69DA601A68013A1A605A68013281
:100390005A601A680AB901225A725A680AB10022D0
:1003A0001A72DB6903B198471A4CA3891B0630D532
:1003B0008021204600F019FB01282AD1174B1A7A18
:1003C000FAB91A6911781A6901321A6118699A69B9
:1003D000904204BF5A691A611A6801321A605A6859
:1003E000013A5A605A6812B90C4A012010721B680F
:1003F00013B10A4B00225A720648BDE8104000F0C3
:10040000ECBA2046BDE81040002240F2277100F00F
:10041000CCBA10BD003801408C080020880B0020A9
:1004200030B5054689B0009324481346244A00F0AD
:10043000FCFA01214FF4804000F09CF901210420D6
:1004400000F098F91F4C4FF40073ADF80C30032303
:100450008DF80E3003A9182320468DF80F3000F0D8
:1004600035F84FF4806303A9ADF80C30204604231F
:100470008DF80F3004F5405400F028F804A800F07F
:100480007DFA04A92046049500F024FA20460022B3
:1004900040F2277100F089FA2046012240F22551EE
:1004A00000F083FA084BF02283F8252320225A60BB
:1004B0000121204600F06DFA09B030BD880B002004
:1004C000410300080008014000E100E0CA782DE97E
:1004D000F041D40648BF8C780E8802F00F0348BF65
:1004E000234316F0FF0F1ED0016800244FF0010EC9
:1004F0004FF00F0C0EFA04F737EA06050FD1A500EE
:100500000CFA05F821EA080103FA05F5282A41EA60
:10051000050101D1476102E0482A08BF07610134A3
:10052000082CE7D10160FF2E20D9416800244FF04C
:10053000010E4FF00F0C04F108050EFA05F535EA2F
:1005400006070FD1A7000CFA07F821EA080103FA01
:1005500007F7282A41EA070101D1456102E0482A4C
:1005600008BF05610134082CE5D14160BDE8F08188
:10057000806880B270470161704741617047000038
:1005800040F6FE7330B5084D83402A6822EA030323
:1005900091E8140014438A681443CA68224302FA9B
:1005A00000F01843286030BD007400400023036051
:1005B00043608360C3607047064A012319B1116824
:1005C00083400B4303E01168834021EA0303136077
:1005D000704700BF0074004008B500F08BFFBDE815
:1005E000084000F0EFBA000008B5044B01221A7071
:1005F00000F042FABDE8084000F056BA900800202A
:1006000037B572B62C4C2D4BA36062B62C4A002332
:1006100010214FF41640FFF703FF0121102000F0D6
:10062000A9F84FF44073ADF80430032301A925481D
:100630008DF8063010238DF80730FFF747FF00F0E4
:1006400025FA00F093FF00F037FA1F4B186801F00D
:100650003FFB17A3D3E9002301F0B0FB01F070FECC
:10066000B0F1807F09D2194BF0220138586084F82C
:10067000232000229A6007221A60154D154C2B7812
:1006800083B100232B70237B33B1A06801F030FBD2
:1006900002460B46606803E0002200234FF0FF3063
:1006A00000F0CAFEFFF798FFE9E700BFAFF3008054
:1006B0007B14AE47E17A843F00ED00E00040000883
:1006C000D9050008001001400000002010E000E003
:1006D000D00B002028000020034A536823F4404335
:1006E00018435060704700BF001002401D4A10B50B
:1006F000536803F00C03042B01D0082B01D01A4BD4
:1007000010E053685168C3F38343C90341BFD16A02
:10071000154C01F00F0101314CBFB4FBF1F113494D
:1007200002334B43036053681149C3F30313CC5C9A
:100730000368E34043605468C4F302240C5D23FA69
:1007400004F484605468C4F3C2240C5DE340C360C5
:100750005268C2F381320A44127CB3FBF2F30361A4
:1007600010BD00BF0010024000127A0000093D00D9
:1007700014000020044B9A6909B1104301E022EAF9
:1007800000009861704700BF00100240044BDA6916
:1007900009B1104301E022EA0000D861704700BFB0
:1007A00000100240436810B523F470220B6822F455
:1007B000807213430A7943EA02234360CA688B6854
:1007C00084681A43084B234013434A7943EA42039F
:1007D0008360C36A23F470020B7C013BDBB242EA04
:1007E0000353C36210BD00BFFDF7F1FF836811B171
:1007F00043F0010301E023F0010383607047836845
:1008000043F00803836070478068C0F3C0007047FE
:10081000836843F00403836070478068C0F38000FE
:100820007047836811B143F4A00301E023F4A003EF
:1008300083607047092970B50DD9A1F10A04C66813
:1008400004EB44040725A54026EA050503FA04F451
:100850002C43C4600AE0066901EB41040725A5406A
:1008600026EA050503FA04F42C430461062A0CD891
:10087000013A446B02EB82021F23934024EA0303F4
:1008800001FA02F21A43426370BD0C2A0CD8073AEF
:10089000046B02EB82021F23934024EA030301FA54
:1008A00002F21A43026370BD0D3AC46A02EB82027F
:1008B0001F23934024EA030301FA02F21A43C2629F
:1008C00070BDC06C80B270470368194214BF01202C
:1008D0000020704770B50E460446038ACA889BB252
:1008E00023F440531343038282898988338992B267
:1008F0000B43718922F4B0520B4322F00C021343D4
:100900009BB28381838AB2899BB223F4407386B001
:100910001343838201A8FFF7E9FE174A039B049D56
:100920003168944218BF1D4619226A43A389642680
:1009300013F4004F14BF4D008D00B2FBF5F5B5FB6D
:10094000F6F0A28900010109120406FB115307D534
:10095000D9003231B1FBF6F202F00702104306E093
:100960001A013232B2FBF6F303F00F03184380B2E0
:10097000208106B070BD00BF003801404FF416530F
:1009800003600C2200238380C38003814281838122
:100990007047838919B19BB243F4005303E023F4F9
:1009A00000531B041B0C83817047012310B5C1F356
:1009B00042149C4201F01F0103FA01F101D10C30F5
:1009C00003E0022C0CBF1030143003680AB1194345
:1009D00001E023EA0101016010BDC1F3080181803B
:1009E00070478088C0F3080070470388194214BF1D
:1009F00001200020704708B5FFF732FC72B608BD31
:100A000010B50446FFF7F7FF636923616369E3608C
:100A1000A36962699B1A236001220023636022722A
:100A20006372BDE81040FFF71EBCF8B50D4606998D
:100A3000044617461E4629B9284601F0A7FC606106
:100A400008B9FEE741616169E7610D44A56126626D
:100A50002046BDE8F840FFF7D3BF0000044B024634
:100A6000196809B903491960186802441A60704787
:100A700094080020F40B0020034B5A6812B15A6806
:100A8000013A5A60704700BF9808002007B500235C
:100A900000931A4610210348FFF7C7FF03B05DF823
:100AA00004FB00BFAC0B0020024A13680BB1013BF2
:100AB00013607047AC08002070B5012186B0042097
:100AC000FFF758FE01211020FFF754FE01214FF4DB
:100AD0000070FFF74FFE03238DF80230102306ACA1
:100AE0008DF80330402324F8183D21462448FFF7B1
:100AF000EDFC482321468DF8033021480F23ADF843
:100B000000300025FFF7E2FC072621461D488DF83E
:100B10000350ADF80060FFF7D9FC4FF40040FFF739
:100B2000DBFD4FF460230124039301A94FF400631C
:100B30001548049301958DF808508DF809508DF8EB
:100B40001440FFF72FFE334622460A210E48FFF7D6
:100B500071FE0D482146FFF749FE0B48FFF74FFE97
:100B60000948FFF751FE0028FAD10748FFF750FE69
:100B70000548FFF752FE0028FAD106B070BD00BF4D
:100B800000080140001001400024014010B5044657
:100B90000B48FFF796FE2368C3EB001003EBA01091
:100BA00063682060C833984284BFA0F1C8036360C3
:100BB0006368C83B98423CBFC830606010BD00BF4E
:100BC00000240140F8B56C4C2379062B00F2D38049
:100BD000DFE803F00408414F686C9A000723012204
:100BE0000A213BE002216548FFF76EFE012840F034
:100BF000C280237901332371614C2046FFF7C6FF81
:100C000044F61E6365684021A5F5FB24A4F1F102BA
:100C10009A425C4803D8FFF7AEFC00200EE0FFF7D5
:100C2000ACFC41F27A40B5F5002FC6BFA5F5022312
:100C3000A3F5E263A4F1F00393FBF0F0524B1A68C2
:100C4000904200F098801860504B01221A70BDE865
:100C5000F84000F041BC072301220B214748FFF771
:100C6000E9FD01214548FFF7DCFD237901332371BC
:100C7000F8BD02214148FFF727FE012805467AD139
:100C8000237901332371424C2046FFF77FFF3E4A10
:100C9000636851681B0B8B426DD05360137B002B34
:100CA00069D01BE0072301220C21D7E7022133483A
:100CB000FFF70AFE012805465DD123790133237130
:100CC000344C2046FFF762FF334A636893422E4A52
:100CD00007DD137B002B4ED0002313732F4B1D70A9
:100CE000F8BD117B11B92D4915730D702C499B026C
:100CF000B3FBF1F39268053393423CD0224A9360F0
:100D0000264B01221A70F8BD00261E48E78826717E
:100D1000FFF72EFC00F00F00B842174D03D12B89CE
:100D200001332B8106E01748FFF722FC00F00F008B
:100D3000E8802E812389C82B17D10F4BDB885907F8
:100D400002D500F04FF801E000F052F8E38813F00C
:100D5000010003D09A0754BF0220012000F022F8BE
:100D6000E3881B0701D400F023F82389C92B82BF35
:100D7000014BC9221A81F8BDAC08002000240140B3
:100D8000DC0B00200008014028000020EC0B0020B4
:100D9000E40B0020D40B0020703A0F00D00B002091
:100DA0003C055400014B1870704700BF380000200C
:100DB0000A4B5A780A4B02B101221A731A7783F848
:100DC0002C2083F83C2083F84C2083F85C2083F8A7
:100DD0006C2083F87C2083F88C207047380000203A
:100DE000B8080020014B01225A70704738000020DB
:100DF000014B00225A707047380000202DE9F74F50
:100E00004FF48071A848FFF7B6FB0121A748FFF710
:100E1000FEF9A74AB2F8903001339BB2B3F5A57F33
:100E200002D0A2F890303AE092F892300020A2F876
:100E30009000A04993B182F8920092F893304878DC
:100E400002EB031300B10120187392F89330984815
:100E50000133DBB2092B08BF002313E092F89400A2
:100E600090B182F89430487892F8933002EB0313F3
:100E700000B10120187392F893308D480BB1013BFB
:100E800000E0082380F8933092F89330486889682E
:100E900002EB031358609960002382F8953092F8B2
:100EA0009330002502EB03114C68896801F5B120ED
:100EB00000F5647081420ED00133DBB2092B08BF0C
:100EC000002301F5314102EB0315640072316C60BF
:100ED000A9600125EEE70DB182F8933092F89330C6
:100EE00073490133DBB2092B08BF0023156981F870
:100EF000933092E842000E445169146A0D44516ADD
:100F0000106B0C44516B176C0844516C166007EB66
:100F1000010E176D516D156107EB010C176E516EC7
:100F2000146239441166176F0091516F1063394490
:100F30001167D2F880708846D2F88410C2F840E079
:100F400039445C4FC2F850C0C2F880103A78584B10
:100F5000012A8946019740F0B180574FB60C37F906
:100F6000162040F2446693F80CA0AD0C0AFB02FA7E
:100F70009A68A40CA2F53C22A2F5C662B2FBF6F276
:100F800003EB4202B2F896B037F915201D7F800CB2
:100F900055439A694FEA9E4EA2F53C22A2F5C662DD
:100FA000B2FBF6F203EB4202B2F896204FEA9C4CF9
:100FB000554337F914200BFB0A5B93F82CA093F8E8
:100FC0004C400AFB02FA9A6A4FEA9848A2F53C2282
:100FD000A2F5C662B2FBF6F203EB4202B2F896202B
:100FE0004FEA994902FB0ABA37F9102093F83C00FE
:100FF00050439A6BA2F53C22A2F5C662B2FBF6F210
:1010000003EB4202B2F896B037F91E200BFB00A0AA
:1010100054439A6CA2F53C22A2F5C662B2FBF6F2EA
:1010200003EB4202B2F896B093F85C200BFB040B82
:1010300037F91C4002FB04F59A6DA2F53C22A2F59B
:10104000C662B2FBF6F203EB4202B2F896A0009A37
:101050000AFB05B4910C37F9110093F86C2050434A
:101060009A6EA2F53C22A2F5C662B2FBF6F203EB41
:101070004202B2F896A093F87C200AFB004A37F9A6
:10108000180002FB00F19A6FA2F53C22A2F5C6629D
:10109000B2FBF6F203EB4202B2F8960000FB01A0AD
:1010A00037F91910C4E000BF0010014000100040E3
:1010B000B8080020380000208C2B0008002A40F0DF
:1010C000C980D94FB60C07EB4606B6F9382940F26D
:1010D000446693F80CA0AD0C0AFB02FA9A6807EB81
:1010E0004505A2F53C22A2F5C662B2FBF6F203EB7F
:1010F0004202B2F896B0B5F938291D7FA40C5543C9
:101100009A6907EB4404A2F53C22A2F5C662B2FB41
:10111000F6F203EB4202B2F89620800C5543B4F984
:1011200038290BFB0A5B93F82CA007EB40000AFB65
:1011300002FA9A6A4FEA9E4EA2F53C22A2F5C662D6
:10114000B2FBF6F203EB4202B2F8962007EB4E0E2A
:1011500002FB0ABAB0F9382993F83C0093F84C40E6
:1011600050439A6B4FEA9C4CA2F53C22A2F5C66212
:10117000B2FBF6F203EB4202B2F896B0BEF93829A0
:1011800007EB4C0C54439A6C0BFB00A0A2F53C22DD
:10119000A2F5C662B2FBF6F203EB4202B2F896B0D9
:1011A000BCF938A993F85C200BFB040B02FB0AFA8C
:1011B0009A6D4FEA9848A2F53C22A2F5C662B2FBAE
:1011C000F6F203EB4202B2F89640009A04FB0AB42E
:1011D000910C07EB4101B1F9380993F86C2007EB4A
:1011E000480850439A6E4FEA9949A2F53C22A2F56D
:1011F000C662B2FBF6F203EB4202B2F896A093F895
:101200007C200AFB004AB8F9380907EB490702FBC2
:1012100000F19A6FA2F53C22A2F5C662B2FBF6F28B
:1012200003EB4202B2F8960000FB01A0B7F93819AF
:1012300093F88C204A43D3F88810A1F53C21A1F5FE
:10124000C661B1FBF6F603EB4606B6F8963003FB33
:101250000203D2E0022A40F0CF80744FC6F38B46DF
:1012600007EB4606B6F9782140F2446693F80CA0E5
:10127000C5F38B450AFB02FA9A6807EB4505A2F510
:101280003C22A2F5C662B2FBF6F203EB4202B2F8D0
:1012900096B0B5F978211D7FC4F38B4455439A6904
:1012A00007EB4404A2F53C22A2F5C662B2FBF6F2BB
:1012B00003EB4202B2F89620C0F38B405543B4F9D9
:1012C00078210BFB0A5B93F82CA007EB40000AFB8C
:1012D00002FA9A6ACEF38B4EA2F53C22A2F5C662C0
:1012E000B2FBF6F203EB4202B2F8962007EB4E0E89
:1012F00002FB0ABAB0F9782193F83C00CCF38B4C8E
:1013000050439A6B07EB4C0CA2F53C22A2F5C66247
:10131000B2FBF6F203EB4202B2F896B0BEF97821C6
:101320000BFB00A093F84CA0C8F38B480AFB02FA11
:101330009A6C07EB4808A2F53C22A2F5C662B2FB04
:10134000F6F203EB4202B2F896B093F85C200BFB86
:101350000A0ABCF97801C9F38B4950439A6DA2F58A
:101360003C22A2F5C662B2FBF6F203EB4202B2F8EF
:1013700096B0009A0BFB00ABC2F38B4107EB410127
:1013800093F86C20B1F978A107EB490702FB0AFA40
:101390009A6EA2F53C22A2F5C662B2FBF6F203EB0E
:1013A0004202B2F8960093F87C2000FB0AB0B8F92C
:1013B00078A102FB0AF19A6FA2F53C22A2F5C6625F
:1013C000B2FBF6F203EB4202B2F896A093F88C203F
:1013D0000AFB010AB7F978114A43D3F88810A1F53E
:1013E0003C21A1F5C661B1FBF6F603EB4603B3F869
:1013F000963003FB02A300E00023019A0C48D26858
:1014000093FBF2F3132293FBF2F30A4A03F5006114
:101410009160C3F500634FF48071536103B0BDE880
:10142000F04FFFF7AAB800BF54A20008142A010821
:101430000010014000740040FF282DE9F0410446EF
:1014400016461F46DFF88C8025D81046194600F056
:1014500003FB32463B4600F0B1FC06460F46002532
:10146000281B4043404200F043FC32463B4600F01C
:10147000CFFD00F0F1F814A3D3E9002300F09EFCA7
:1014800000F05EFF28F815000135FFF7A5F8B5F567
:10149000807FE5D108E040F6FF72002328F8132092
:1014A0000133B3F5807FF9D1002C01DD1C3CFBE753
:1014B0001C34002338F814201C34FF2C1344F9DDAD
:1014C000034AD360BDE8F0810000000000FEAF4099
:1014D000380000204E09002000F53143034A7133E3
:1014E00093429CBF024BC3F898027047E26201002E
:1014F000B808002038B5184D95F895305BBB174CEF
:10150000D5F89832A2681344154A93429DBF03F55B
:1015100031437233A360A3609CBF012385F89230EE
:10152000104AA368934207D9A3F531430B4A723B93
:101530009360012385F89430A06800F0C9FB0A4B42
:10154000002200F03BFC00F087F800F0F9FE0123D8
:10155000606085F8953038BDB8080020380000205C
:101560002FC60B00A1770C000000F03E40F6FF7183
:1015700010B5314A88B0002322F813100133B3F5B7
:10158000807FF9D12D4C00230120E1181033902BDE
:101590002A4A0873F9D12A4B01215360294B4FF095
:1015A00000509360FFF7F2F801210420FFF7E2F802
:1015B00001211020FFF7EAF8002430236946224871
:1015C000ADF800308DF80340FEF780FF04A8FEF769
:1015D000EDFF042304A920460493FEF7D1FF04A9DC
:1015E0001020FEF7CDFF01A8FEF7E6FD40F2D5235F
:1015F00001A91648ADF80830FEF794FD20211348E4
:10160000FEF7FAFD012211461048FEF7F3FD2046D1
:101610000121FEF7D1FF01211020FEF7CDFF0121AE
:101620000A48FEF7D2FD0A4BF02283F836234FF426
:1016300080025A6008B010BD4E090020B808002092
:101640003FFB010030C60B000008014000100040C5
:1016500000E100E0000000002DE9F0438BB00646F9
:101660000F4600F075F8DFF8E480044698F9003082
:101670000D46013337D03046394600F0DFF90028F7
:1016800031D02BA3D3E900233046394600F026FEA3
:10169000814668BB28A3D3E900233046394600F0D1
:1016A000FFFD00B398F90030254C002000210422F2
:1016B000022BCDF82090CDE90467CDE90267CDE992
:1016C00006018DE814002CD0684600F0BDF940B347
:1016D000089B1BB100F054FE089B0360DDE9060186
:1016E0000BB0BDE8F083204629460BB0BDE8F0837F
:1016F000134898F9003003210022CDE90467CDE9B1
:1017000002670190009108922BB90E4B4FF0604296
:10171000CDE90623D8E70C490020022BCDE90601CC
:10172000D2D100F02DFE22230360D1E7AFF3008079
:10173000EF39FAFE422E864051302DD5104987C030
:101740008C4B0108FFFFEF470000F07F48000020AE
:101750002DE9F04FB04F21F00042BA4283B00C4661
:101760004FEAD17605460DD9AC4FBA4225D9C1F31F
:101770001303034340F0EF800EB10020014603B095
:10178000BDE8F08FA64B9A4200F2CC80A54B9A425E
:1017900000F2DE808AA3D3E9002300F05DF9002285
:1017A000A14B00F09BFD002800F005812846214652
:1017B00000229D4B00F050F9E1E783A3D3E9002319
:1017C00000F08CFD002840F0CB8081A3D3E90023FA
:1017D0002846214600F064FD0028CED17EA3D3E93F
:1017E0000023924F284607EBC608214600F0E6FA90
:1017F000D8E9002300F030F900F07AFD804600F0CF
:1018000077FA77A3D3E9002306460F4600F0D6FA0D
:1018100002460B462846214600F01CF972A3D3E984
:101820000023CDE900013046394600F0C7FA824670
:101830008B46DDE9000152465B4600F00BF9054698
:101840000C462A4623462846214600F0B7FA68A3EC
:10185000D3E9002306460F4600F0B0FA66A3D3E9A9
:10186000002300F0F7F832463B4600F0A7FA64A3E5
:10187000D3E9002300F0F0F832463B4600F09EFA30
:1018800061A3D3E9002300F0E5F832463B4600F0BF
:1018900095FA5FA3D3E9002300F0DEF832463B4619
:1018A00000F08CFA02460B462846214600F0D2F89A
:1018B00006460F462846214632463B46B8F1000F01
:1018C00056D000F07BFA324604460D463B460020D7
:1018D0004FF0804100F0BEF802460B4620462946F4
:1018E00000F096FB02460B465046594600F0B2F80F
:1018F000DDE9002300F0AEF80B4602464A4900201D
:1019000000F0A8F86FF47F7398454FDA08F57A78FD
:1019100001EB085100224FF0B87300F04FFA03B00A
:10192000BDE8F08F424B9A423FF658AF414BF4006E
:101930002344D3E9002300F08DF83F4BC6F10108A2
:101940001C44CDE90001D4E900ABC6EB080870E700
:101950004FF0000875E702460B4600F07DF80EE7F1
:1019600017A3D3E900231046194600F027FA06E72B
:1019700000F024FA0022804689464FF0804330462A
:10198000394600F067F802460B464046494600F0EB
:101990003FFB2A46234600F05DF802460B46002036
:1019A000214900F057F803B0BDE8F08F01EB085172
:1019B00003B0BDE8F08F804643E700BFAFF300807F
:1019C0009C7500883CE4377EEF39FAFE422E864053
:1019D00051302DD5104987C0FE822B654715F73F42
:1019E0000000E0FE422EE63F763C7935EF39EA3DD5
:1019F000D0A4BE726937663EF16BD2C541BDBB3E15
:101A00002CDE25AF6A56113F93BDBE166CC1663FF2
:101A10003E5555555555C53F412E8640FFFFEF7F3A
:101A2000422ED63FFFFF2F3E0000F03F904B0108B3
:101A3000B1A2F03FB04B0108A04B010841F00041BA
:101A400001F58010C00F70470020704781F0004101
:101A500002E000BF83F0004330B54FEA41044FEA93
:101A6000430594EA050F08BF90EA020F1FBF54EA2E
:101A7000000C55EA020C7FEA645C7FEA655C00F0CA
:101A8000E2804FEA5454D4EB5555B8BF6D420CDD9B
:101A90002C4480EA020281EA030382EA000083EA1E
:101AA000010180EA020281EA0303362D88BF30BDBE
:101AB00011F0004F4FEA01314FF4801C4CEA113114
:101AC00002D0404261EB410113F0004F4FEA033373
:101AD0004CEA133302D0524263EB430394EA050FFE
:101AE00000F0A780A4F10104D5F1200E0DDB02FA6D
:101AF0000EFC22FA05F2801841F1000103FA0EF201
:101B0000801843FA05F359410EE0A5F120050EF1C6
:101B1000200E012A03FA0EFC28BF4CF0020C43FAF7
:101B200005F3C01851EBE37101F0004507D54FF004
:101B3000000EDCF1000C7EEB00006EEB0101B1F554
:101B4000801F1BD3B1F5001F0CD349085FEA30009A
:101B50004FEA3C0C04F101044FEA445212F5800FA5
:101B600080F09A80BCF1004F08BF5FEA500C50F142
:101B7000000041EB045141EA050130BD5FEA4C0C25
:101B8000404141EB010111F4801FA4F10104E9D1AE
:101B900091F0000F04BF01460020B1FA81F308BFA5
:101BA0002033A3F10B03B3F120020CDA0C3208DD71
:101BB00002F1140CC2F10C0201FA0CF021FA02F14C
:101BC0000CE002F11402D8BFC2F1200C01FA02F1BC
:101BD00020FA0CFCDCBF41EA0C019040E41AA2BFE1
:101BE00001EB0451294330BD6FEA04041F3C1CDAA9
:101BF0000C340EDC04F11404C4F1200220FA04F0C9
:101C000001FA02F340EA030021FA04F345EA030172
:101C100030BDC4F10C04C4F1200220FA02F001FA34
:101C200004F340EA0300294630BD21FA04F02946B6
:101C300030BD94F0000F83F4801306BF81F480114F
:101C40000134013D4EE77FEA645C18BF7FEA655CC2
:101C500029D094EA050F08BF90EA020F05D054EA94
:101C6000000C04BF1946104630BD91EA030F1EBF99
:101C70000021002030BD5FEA545C05D1400049419D
:101C800028BF41F0004130BD14F580043CBF01F590
:101C9000801130BD01F0004545F0FE4141F4700176
:101CA0004FF0000030BD7FEA645C1ABF1946104651
:101CB0007FEA655C1CBF0B46024650EA013406BF52
:101CC00052EA033591EA030F41F4002130BD00BF11
:101CD00090F0000F04BF0021704730B54FF48064CE
:101CE00004F132044FF000054FF0000150E700BF4F
:101CF00090F0000F04BF0021704730B54FF48064AE
:101D000004F1320410F0004548BF40424FF000019A
:101D10003EE700BF42004FEAE2014FEA31014FEADD
:101D200002701FBF12F07F4393F07F4F81F060512C
:101D3000704792F0000F14BF93F07F4F704730B59B
:101D40004FF4607401F0004521F0004120E700BF2E
:101D500050EA010208BF704730B54FF000050AE0B5
:101D600050EA010208BF704730B511F0004502D5B6
:101D7000404261EB41014FF4806404F132045FEAB8
:101D8000915C3FF4DCAE4FF003025FEADC0C18BF5D
:101D900003325FEADC0C18BF033202EBDC02C2F153
:101DA000200300FA03FC20FA02F001FA03FE40EAE5
:101DB0000E0021FA02F11444C1E600BF70B54FF0E5
:101DC000FF0C4CF4E06C1CEA11541DBF1CEA1355C7
:101DD00094EA0C0F95EA0C0F00F0DEF82C4481EA2F
:101DE000030621EA4C5123EA4C5350EA013518BF4F
:101DF00052EA033541F4801143F4801338D0A0FB3C
:101E000002CE4FF00005E1FB02E506F00042E0FBE8
:101E100003E54FF00006E1FB03569CF0000F18BFEE
:101E20004EF0010EA4F1FF04B6F5007F64F5407496
:101E300004D25FEA4E0E6D4146EB060642EAC62129
:101E400041EA55514FEAC52040EA5E504FEACE2E96
:101E5000B4F1FD0C88BFBCF5E06F1ED8BEF1004F99
:101E600008BF5FEA500E50F1000041EB045170BD15
:101E700006F0004646EA010140EA020081EA030159
:101E8000B4EB5C04C2BFD4EB0C0541EA045170BD55
:101E900041F480114FF0000E013C00F3AB8014F1CF
:101EA000360FDEBF002001F0004170BDC4F1000418
:101EB000203C35DA0C341BDC04F11404C4F1200599
:101EC00000FA05F320FA04F001FA05F240EA0200F4
:101ED00001F0004221F0004110EBD37021FA04F62A
:101EE00042EB06015EEA430E08BF20EAD37070BDE4
:101EF000C4F10C04C4F1200500FA04F320FA05F043
:101F000001FA04F240EA020001F0004110EBD37044
:101F100041F100015EEA430E08BF20EAD37070BDB4
:101F2000C4F1200500FA05F24EEA020E20FA04F38D
:101F300001FA05F243EA020321FA04F001F000413C
:101F400021FA04F220EA020000EBD3705EEA430EAD
:101F500008BF20EAD37070BD94F0000F0FD101F0DC
:101F60000046400041EB010111F4801F08BF013C15
:101F7000F7D041EA060195F0000F18BF704703F053
:101F80000046520043EB030313F4801F08BF013DDA
:101F9000F7D043EA0603704794EA0C0F0CEA135596
:101FA00018BF95EA0C0F0CD050EA410618BF52EA50
:101FB0004306D1D181EA030101F000414FF0000056
:101FC00070BD50EA410606BF1046194652EA430664
:101FD00019D094EA0C0F02D150EA013613D195EAD8
:101FE0000C0F05D152EA03361CBF104619460AD120
:101FF00081EA030101F0004141F0FE4141F470012A
:102000004FF0000070BD41F0FE4141F4780170BD19
:1020100070B54FF0FF0C4CF4E06C1CEA11541DBF7E
:102020001CEA135594EA0C0F95EA0C0F00F0A7F880
:10203000A4EB050481EA030E52EA03354FEA0131AD
:1020400000F088804FEA03334FF0805545EA1313C0
:1020500043EA12634FEA022245EA111545EA106588
:102060004FEA00260EF000419D4208BF964244F11F
:10207000FD0404F5407402D25B084FEA3202B61A3E
:1020800065EB03055B084FEA32024FF480104FF412
:10209000002CB6EB020E75EB030E22BFB61A754686
:1020A00040EA0C005B084FEA3202B6EB020E75EB19
:1020B000030E22BFB61A754640EA5C005B084FEA81
:1020C0003202B6EB020E75EB030E22BFB61A75464E
:1020D00040EA9C005B084FEA3202B6EB020E75EB59
:1020E000030E22BFB61A754640EADC0055EA060E1A
:1020F00018D04FEA051545EA16754FEA06164FEA5D
:10210000C30343EA52734FEAC2025FEA1C1CC0D108
:1021100011F4801F0BD141EA00014FF000004FF095
:10212000004CB6E711F4801F04BF01430020B4F156
:10213000FD0C88BFBCF5E06F3FF6AFAEB5EB030C0E
:1021400004BFB6EB020C5FEA500C50F1000041EB0B
:10215000045170BD0EF0004E4EEA113114EB5C04D8
:10216000C2BFD4EB0C0541EA045170BD41F48011AB
:102170004FF0000E013C90E645EA060E8DE60CEAB3
:10218000135594EA0C0F08BF95EA0C0F3FF43BAFD0
:1021900094EA0C0F0AD150EA01347FF434AF95EA87
:1021A0000C0F7FF425AF104619462CE795EA0C0F6B
:1021B00006D152EA03353FF4FDAE1046194622E738
:1021C00050EA410618BF52EA43067FF4C5AE50EA12
:1021D00041047FF40DAF52EA43057FF4EBAE12E702
:1021E0004FF0FF3C06E000BF4FF0010C02E000BFE3
:1021F0004FF0010C4DF804CD4FEA410C7FEA6C5CC6
:102200004FEA430C18BF7FEA6C5C1BD001B050EA68
:10221000410C0CBF52EA430C91EA030F02BF90EA53
:10222000020F0020704710F1000F91EA030F58BF12
:10223000994208BF90422CBFD8176FEAE37040F074
:10224000010070474FEA410C7FEA6C5C02D150EA12
:10225000013C07D14FEA430C7FEA6C5CD6D152EACD
:10226000033CD3D05DF8040B704700BF8446104692
:1022700062468C461946634600E000BF01B5FFF791
:10228000B7FF002848BF10F1000F01BD4DF808ED61
:10229000FFF7F4FF0CBF012000205DF808FB00BF32
:1022A0004DF808EDFFF7EAFF34BF012000205DF88C
:1022B00008FB00BF4DF808EDFFF7E0FF94BF0120D9
:1022C00000205DF808FB00BF4DF808EDFFF7CEFFDA
:1022D00094BF012000205DF808FB00BF4DF808ED19
:1022E000FFF7C4FF34BF012000205DF808FB00BFEA
:1022F0004FEA410212F5001215D211D56FF478732E
:10230000B3EB625212D94FEAC12343F0004343EAD0
:10231000505311F0004F23FA02F018BF40427047AB
:102320004FF00000704750EA013005D111F0004035
:1023300008BF6FF0004070474FF00000704700BFCB
:102340004A0011D212F5001211D20DD56FF4787334
:10235000B3EB62520ED44FEAC12343F0004343EA89
:10236000505323FA02F070474FF00000704750EAD4
:10237000013002D14FF0FF3070474FF0000070473E
:10238000014B1868704700BF78040020024B0146DB
:10239000186800F003B800BF780400202DE9F04F62
:1023A00001F10B05162D83B0064640F2A08035F0F2
:1023B000070500F1C080A94200F2BD8000F09AFA42
:1023C000B5F5FC7FC0F090826B0A00F0BB80042B57
:1023D00000F27781A80900F1390E4FEA4E0138303A
:1023E000BE4F07EB81014C680839A14207D1AEE02E
:1023F000002A80F2AE80E468A14200F0A880636801
:1024000023F003035A1B0F2AF2DDB4493C6901F1A2
:10241000080E744500F0A881636823F003035A1B7B
:102420000F2A00F38E81002AC1F814E0C1F810E0F1
:1024300080F29380B3F5007F80F05C81DB084A680E
:102440004FEAA3094FF0010C013351F833800CFA25
:1024500009F901EBC30C49EA0202ACF1080CC4F81B
:102460000CC0C4F808804A6041F83340C8F80C40FA
:10247000831001249C4094427CD8144206D120F061
:1024800003006400144200F10400FAD007EBC00915
:10249000CC468046DCF80C108C4507D166E1002A5A
:1024A00080F27481C9688C4500F060814B6823F02C
:1024B00003035A1B0F2AF2DD0C46CB6854F808CFF1
:1024C00045F00108C1F804800D4442F00101CCF848
:1024D0000C303046C3F808C07D613D61C5F80CE0A2
:1024E000C5F808E06960AA5000F006FA1FE010295C
:1024F00021D800F0FFF9102506230220774F07EBC3
:1025000083035C68A3F10802944200F03881636899
:10251000E16823F0030323445A68A56842F00102EE
:10252000E96030468D605A6000F0E6F908342046D4
:1025300003B0BDE8F08F002420460C23336003B0C5
:10254000BDE8F08F80214FF0400E3F2048E77046F5
:102550005BE723445A68E168DFE723445A68304662
:1025600042F001025A60083400F0C6F9204603B078
:10257000BDE8F08FBC68636823F00308A84504D366
:10258000C5EB08030F2B00F38C80554BDFF86091EF
:102590001A68D9F800302A44013304EB080A00F025
:1025A000608102F580520F3222F47F6222F00F0226
:1025B00011463046019200F0A1F9B0F1FF3F834689
:1025C000019A00F05881824500F2FC80454BDA45C3
:1025D00019681144196000F05381D9F80000DFF840
:1025E00010E101301BBFCAEB0B0A5144CEF800B01A
:1025F00019601BF0070100F01781C1F10800C1F557
:102600008051834408315A44C2F30B02C2EB0109E2
:1026100049463046019300F071F9431C019B00F0DC
:102620003F81CBEB00024A4442F001021968BC42F0
:102630004944C7F808B01960CBF80420DFF8A4902B
:1026400016D0B8F10F0F40F2FD806268A8F10C03BC
:1026500023F0070302F00102E0184FF0050E1A43C1
:102660000F2B6260C0F804E0C0F808E000F21C81A3
:102670001D4BBC681A68914288BF19601B4B1A68D1
:102680009142626888BF196022F003029542A2EB72
:10269000050301D80F2B04DC304600F02DF900248F
:1026A00045E745F0010243F00103254462603046EE
:1026B000BD6008346B6000F01FF9204603B0BDE830
:1026C000F08F142B71D9542B00F2A480280B00F149
:1026D0006F0E4FEA4E016E3082E600BF7C04002090
:1026E0005C0B0020600B0020580B0020540B0020D6
:1026F000880800205A0A042A5ED9142A00F2B380FE
:1027000002F15C0149005B3207EB810C57F82110A4
:10271000ACF1080C8C45DFF8D88100F088804A685D
:1027200022F00302934202D289688C45F7D1D1F896
:102730000CC07A68C4F80CC0A160CCF80840CC602A
:1027400096E645F0010742F00103254467603046F4
:102750004D610D61C5F80CE0C5F808E06B60AA504A
:10276000083400F0C9F8E2E64A6881E608F1010899
:1027700018F0030F0CF1080C7FF48CAE30E0DC682D
:10278000A34208BF02303FF440AEC0E60C460B4403
:102790005A68C96854F8085F42F001025A6030462E
:1027A000E9608D6000F0A8F8C1E603F15C0E03F16A
:1027B0005B004FEA4E0113E69A0902F13901490024
:1027C0003832A1E7BC424A4B3FF400AF9C686268D4
:1027D00022F003025AE759F80839994540F08280FF
:1027E00010F0030F00F1FF30F5D17B6823EA0403FA
:1027F0007B6064009C423FF6BDAE002C3FF4BAAE55
:102800001C4240467FF442AE64001C4200F10400CA
:10281000FAD03BE6B3F5AA7F18D8E80B00F1780EA2
:102820004FEA4E017730DBE54FF48051EBE60121B2
:10283000D8F80430921001FA02F21A43C8F80420C2
:10284000614677E70123CBF8043025E740F2545284
:10285000934220D8A80C00F17D0E4FEA4E017C3047
:10286000BEE51032A4E6542A26D81A0B02F16F01F5
:1028700049006E3248E7BC68626822F0030205E74F
:10288000CAF30B0000287FF4A8AE4244BB6842F0B4
:1028900001025A60ECE6FE214FF07F0E7E209FE59C
:1028A00001224FF00009C1E604F10801304600F0B2
:1028B00085F8D9F80010DBE6B2F5AA7F05D8DA0B67
:1028C00002F17801490077321EE740F254518A4202
:1028D00005D89A0C02F17D0149007C3214E7FE21F3
:1028E0007E2211E77B6884E7E808431C5B0005E66D
:1028F0007C040020704700BF704700BF38B5074C0C
:102900000023054608462360FEF7A8F8431C00D0C4
:1029100038BD2368002BFBD02B6038BDF00B0020A6
:10292000F8B50C46224F0646FFF7E4FFBB685D682A
:1029300025F00305291B01F6EF7121F47F6121F0D9
:102940000F01A1F58054B4F5805F07DB002130460C
:10295000FFF7D4FFBB682B44984204D03046FFF702
:10296000CBFF0020F8BD61423046FFF7C7FF0130C2
:102970000DD0104BBA6819682D1B45F00105304683
:10298000091B55601960FFF7B7FF0120F8BD002152
:102990003046FFF7B3FFBA68831A0F2BDEDD064C13
:1029A0000449246843F00103001B53600860D5E725
:1029B0007C040020600B002088080020002945D0FE
:1029C0002DE9F0410D468046FFF794FF55F8047C51
:1029D0006A49A5F1080427F00103E2188E685068DF
:1029E000B24220F0030062D0FE0750600BD455F8CD
:1029F000087C01F1080EE41BA5683B4475456FD0C7
:102A0000E768EF60BD6015186D68ED0742D543F0CB
:102A100001026260E350B3F5007F18D2DB0848681A
:102A20009D100122013351F8337002FA05F501EBD4
:102A3000C3022843083AE260A760486041F8334087
:102A4000FC604046BDE8F041FFF756BF70475A0AA8
:102A5000042A53D89A0902F139077F0002F1380598
:102A600001EB870051F827200838904243494DD0A8
:102A7000516821F003018B4202D292689042F7D153
:102A8000D068E060A2608460D4604046BDE8F04158
:102A9000FFF732BF95683A4F0344BD423FD0D0683C
:102AA00043F00102E86085606260E350B3E7FF072E
:102AB000034407D455F8085C641BE268A0682B4403
:102AC000C26090602F4A43F0010012686060934238
:102AD0008C60B6D32C4B40461968FFF721FFB0E756
:102AE00011184968C90744D491680344D26843F077
:102AF0000100CA6091606060E350A2E7142A17D811
:102B000002F15C077F0002F15B05A9E7AA104B68A0
:102B1000012505FA02F213434B600246B1E743F088
:102B200001024C610C61E560A5606260E35088E7DA
:102B3000542A06D81A0B02F16F077F0002F16E05C6
:102B40008EE7B2F5AA7F06D8DA0B02F178077F008C
:102B500002F1770584E740F25450824206D89A0C7D
:102B600002F17D077F0002F17C0579E7FE277E25D3
:102B700076E743F001026260E35062E77C040020E4
:102B800084040020840800205C0B00200000350134
:102B90006B02A103D7040D0642077708AD09E10ACD
:102BA000160C4A0D7E0EB20FE51018124A137C1453
:102BB000AD15DE160F183E196D1A9C1BC91CF61DAB
:102BC000221F4E207921A222CB23F3241B2641274A
:102BD00066288A29AE2AD02BF12C112E2F2F4D30AA
:102BE0006A3185329F33B734CF35E536FA370D3940
:102BF0001F3A2F3B3E3C4C3D583E623F6B4072417A
:102C000078427C437E447F457E467B4777487049C7
:102C1000684A5E4B534C454D354E244F1050FB5087
:102C2000E351CA52AE53915471554F562B57055824
:102C3000DD58B359865A575B265CF35CBE5D865EF1
:102C40004C5F0F60D0608F614B620563BD6372643F
:102C50002565D56583662E67D6677D682069C1695D
:102C6000606AFC6A956B2C6CC06C516DE06D6C6E8B
:102C7000F56E7C6F0070817000717B71F4716B7206
:102C8000DE724F73BD7328749174F6745975B975FB
:102C900016767076C7761C776E77BC770878517891
:102CA0009878DB781B7959799379CB79007A327AE5
:102CB000607A8D7AB67ADC7AFF7A1F7B3D7B577B10
:102CC0006F7B837B957BA47BB07BB97BBF7BC27B17
:102CD000C27BBF7BBA7BB17BA67B977B867B727BFB
:102CE0005B7B417B247B057BE27ABD7A947A697AAF
:102CF0003B7A0A7AD779A07967792B79EC78AA7828
:102D000066781F78D57788773977E77692763A763E
:102D1000E07583752375C1745C74F4738A731D73D5
:102D2000AE723C72C7715071D6705A70DB6F5A6FB9
:102D3000D66E506EC86D3C6DAF6C1F6C8D6BF86AB3
:102D4000616AC8692C698E68EE674C67A766006681
:102D50005765AB64FE634E639C62E96133617B60DF
:102D6000C05F045F465E865DC45C005C3A5B725A7D
:102D7000A859DD580F5840576F569C55C854F25308
:102D80001A53405265518850AA4FCA4EE84D054D1E
:102D9000204C3A4B524A69497F489347A646B7456B
:102DA000C844D743E442F141FC4006400F3F173E80
:102DB0001D3D233C273B2B3A2D392F3830372F36FA
:102DC0002E352C342933253221311B30152F0F2E6F
:102DD000072DFF2BF72AED29E428D927CE26C32576
:102DE000B724AB239E2291218420761F681E591D93
:102DF0004B1C3C1B2D1A1E190F18FF16F015E01462
:102E0000D113C112B211A210930F830E740D650C71
:102E1000560B480A39092B081D0710060205F50351
:102E2000E902DD01D100C6FFBBFEB1FDA8FC9FFB9E
:102E300096FA8EF987F881F77BF676F572F46EF3E1
:102E40006BF269F168F068EF68EE6AED6CEC70EBBC
:102E500074EA7AE980E887E790E69AE5A4E4B0E3CB
:102E6000BDE2CBE1DBE0EBDFFDDE10DE25DD3BDCB0
:102E700052DB6ADA84D99FD8BCD7DAD6F9D51AD50D
:102E80003CD460D386D2ADD1D5D0FFCF2BCF58CE96
:102E900087CDB8CCEACB1ECB53CA8BC9C4C8FFC7F9
:102EA0003BC77AC6BAC5FCC43FC485C3CCC216C2F0
:102EB00061C1AEC0FDBF4EBFA1BEF6BD4CBDA5BC3D
:102EC00000BC5DBBBBBA1CBA7FB9E3B84AB8B3B7A4
:102ED0001EB78BB6FAB56CB5DFB454B4CCB346B3F9
:102EE000C2B240B2C0B142B1C7B04DB0D6AF61AF0F
:102EF000EFAE7EAE10AEA4AD3AADD2AC6DAC0AACC6
:102F0000A9AB4AABEEAA93AA3BAAE6A992A941A90A
:102F1000F2A8A6A85BA813A8CDA78AA749A70AA7C5
:102F2000CDA692A65AA624A6F1A5BFA590A563A5F5
:102F300039A511A5EBA4C7A4A5A486A469A44EA491
:102F400036A420A40BA4FAA3EAA3DDA3D2A3C9A3A9
:102F5000C2A3BDA3BBA3BBA3BDA3C1A3C8A3D0A34E
:102F6000DBA3E8A3F7A308A41BA431A448A462A48C
:102F70007DA49BA4BBA4DDA401A527A54FA579A58D
:102F8000A5A5D3A503A635A669A69FA6D7A611A772
:102F90004CA78AA7CAA70BA84EA893A8DAA823A96A
:102FA0006EA9BAA909AA59AAAAAAFEAA53ABAAABA2
:102FB00003AC5DACBAAC17AD77ADD8AD3AAE9FAE51
:102FC00004AF6CAFD5AF3FB0ABB019B188B1F8B1B9
:102FD0006AB2DDB252B3C8B340B4B9B433B5AFB519
:102FE0002CB6AAB62AB7AAB72CB8B0B834B9BAB9B1
:102FF00041BAC9BA52BBDCBB68BCF4BC82BD10BECE
:10300000A0BE30BFC2BF55C0E8C07DC112C2A8C2B9
:103010003FC3D7C370C40AC5A5C540C6DCC679C7BF
:1030200016C8B4C853C9F3C993CA34CBD5CB77CC2F
:103030001ACDBDCD61CE05CFAACF4FD0F5D09BD153
:1030400041D2E8D28FD337D4DFD487D530D6D9D682
:1030500082D72BD8D5D87FD929DAD3DA7DDB28DC03
:10306000D2DC7DDD28DED3DE7DDF28E0D3E07EE12B
:1030700029E2D4E27FE329E4D4E47EE529E6D3E63D
:103080007DE727E8D0E879E923EACBEA74EB1CEC8A
:10309000C4EC6CED13EEBAEE61EF07F0ADF052F157
:1030A000F7F19CF240F3E3F386F429F5CBF56CF6E7
:1030B0000DF7AEF74DF8EDF88BF929FAC6FA63FB78
:1030C000FFFB9AFC35FDCEFD67FE00FF97FF2E004B
:1030D000C4005A01EE0182021503A7033804C80494
:1030E0005805E605740601078C071708A1082A0988
:1030F000B2093A0AC00A450BC90B4C0CCE0C500D54
:10310000D00D4F0ECD0E4A0FC60F4010BA1033111E
:10311000AA11211296120A137E13F0136014D01410
:103120003F15AC1518168416ED165617BE17241841
:103130008918ED185019B219121A711ACF1A2C1BCE
:10314000881BE21B3B1C931CEA1C3F1D941DE61DC3
:10315000381E891ED81E261F731FBE1F092052202D
:103160009920E02025216921AC21EE212E226D221B
:10317000AB22E72223235D239623CD230424392485
:103180006D24A024D124012530255E258B25B6256C
:10319000E0250926312658267D26A126C426E626C6
:1031A00007272627452762277E279927B227CB277F
:1031B000E227F9270E28222835284728572867288C
:1031C000752883288F289B28A528AE28B628BD28D7
:1031D000C428C928CD28D028D228D328D328D2283B
:1031E000D028CD28C928C528BF28B928B128A928A2
:1031F0009F2895288A287E287128642855284628E3
:103200003528242813280028ED27D927C427AE27DE
:10321000972780276827502736271C270227E6266E
:10322000CA26AD2690267226532634261426F42567
:10323000D325B1258F256C25492525250125DC249D
:10324000B72491246B2444241D24F523CD23A423E7
:103250007C2352232823FE22D422A9227E2252221A
:103260002622FA21CE21A121742147211921EB2008
:10327000BD208F20602031200220D31FA41F741F87
:10328000441F151FE41EB41E841E541E231EF31D6E
:10329000C21D911D601D301DFF1CCE1C9D1C6C1C91
:1032A0003B1C0A1CD91BA81B771B461B151BE41AC9
:1032B000B41A831A521A221AF119C11991196119F3
:1032C00031190119D118A218721843181418E517EA
:1032D000B71788175A172C17FE16D116A31676168D
:1032E00049161D16F015C41598156D1541151615BE
:1032F000EC14C11497146D1444141A14F213C91366
:10330000A113791352132A130413DD12B712911269
:103310006C1247122212FE11DA11B71193117111BA
:103320004E112D110B11EA10C910A9108910691046
:103330004A102C100E10F00FD20FB50F990F7D0F01
:10334000610F460F2B0F100FF60EDD0EC40EAB0EE5
:10335000930E7B0E630E4C0E360E200E0A0EF50DEC
:10336000E00DCC0DB80DA40D910D7E0D6C0D5A0D18
:10337000480D370D270D170D070DF70CE80CDA0C6B
:10338000CB0CBE0CB00CA30C970C8A0C7E0C730CEF
:10339000680C5D0C530C490C3F0C360C2D0C240CA6
:1033A0001C0C140C0D0C060CFF0BF80BF20BEC0BA9
:1033B000E60BE10BDC0BD70BD30BCF0BCB0BC70B07
:1033C000C40BC10BBE0BBC0BB90BB70BB60BB40BCC
:1033D000B30BB20BB10BB00BB00BAF0BAF0BAF0B12
:1033E000AF0BB00BB00BB10BB20BB30BB40BB60BF6
:1033F000B70BB90BBA0BBC0BBE0BC00BC20BC40B8B
:10340000C60BC80BCA0BCD0BCF0BD20BD40BD60BF4
:10341000D90BDB0BDE0BE00BE30BE50BE70BEA0B49
:10342000EC0BEE0BF00BF20BF50BF60BF80BFA0BAB
:10343000FC0BFD0BFF0B000C010C020C030C040C2D
:10344000040C040C050C050C040C040C030C030CFC
:10345000020C000CFF0BFD0BFB0BF90BF60BF30B37
:10346000F00BED0BE90BE50BE10BDD0BD80BD30BF0
:10347000CD0BC70BC10BBA0BB40BAC0BA50B9D0B43
:10348000940B8B0B820B790B6F0B640B5A0B4E0B4F
:10349000430B370B2A0B1D0B100B020BF40AE50A2A
:1034A000D60AC60AB60AA50A940A830A710A5E0AEF
:1034B0004B0A370A230A0F0AF909E409CE09B709AA
:1034C000A00988096F0957093D0923090909EE0870
:1034D000D208B60899087C085E083F082008010851
:1034E000E107C0079F077D075A0737071407EF0654
:1034F000CB06A5067F06590632060A06E105B90580
:103500008F0565053A050F05E304B7048A045C04DA
:103510002E04FF03D003A0036F033E030C03DA0263
:10352000A702740240020C02D601A1016B01340112
:10353000FC00C5008C0053001A00DFFFA5FF6AFFE6
:103540002EFFF2FEB5FE78FE3AFEFCFDBDFD7EFDCF
:103550003EFDFEFCBDFC7CFC3AFCF8FBB6FB72FBBE
:103560002FFBEBFAA6FA62FA1CFAD7F990F94AF99E
:1035700003F9BBF874F82CF8E3F79AF751F707F75B
:10358000BDF673F628F6DDF592F546F5FAF4AEF4DD
:1035900061F414F4C7F37AF32CF3DEF290F242F202
:1035A000F3F1A4F155F106F1B7F067F017F0C7EFAA
:1035B00077EF27EFD6EE86EE35EEE4ED93ED42EDB4
:1035C000F1ECA0EC4FECFEEBACEB5BEB0AEBB8EAFA
:1035D00067EA16EAC4E973E922E9D0E87FE82EE851
:1035E000DDE78CE73BE7EBE69AE649E6F9E5A9E596
:1035F00059E509E5B9E46AE41BE4CCE37DE32EE395
:10360000E0E292E244E2F6E1A9E15CE110E1C3E02C
:1036100078E02CE0E1DF96DF4BDF01DFB8DE6EDE25
:1036200025DEDDDD95DD4EDD06DDC0DC7ADC34DC5B
:10363000EFDBABDB67DB23DBE0DA9EDA5CDA1BDA9D
:10364000DAD99AD95BD91CD9DED8A1D864D828D8C0
:10365000ECD7B1D777D73ED705D7CDD696D660D69B
:103660002AD6F5D5C1D58DD55BD529D5F8D4C8D402
:1036700099D46AD43DD410D4E4D3B9D38FD365D3CD
:103680003DD316D3EFD2CAD2A5D281D25ED23DD2DB
:103690001CD2FCD1DDD1BFD1A2D186D16BD152D108
:1036A00039D121D10AD1F4D0E0D0CCD0B9D0A8D032
:1036B00097D088D07AD06DD061D056D04CD043D03E
:1036C0003BD035D02FD02BD028D026D025D026D017
:1036D00027D02AD02DD032D039D040D048D052D0A7
:1036E0005DD069D076D084D094D0A5D0B7D0CAD0E0
:1036F000DED0F4D00AD122D13CD156D172D18ED1B4
:10370000ACD1CBD1ECD10DD230D254D27AD2A0D21E
:10371000C8D2F0D21BD346D372D3A0D3CFD3FFD31A
:1037200030D463D496D4CBD401D538D571D5AAD5AD
:10373000E5D521D65ED69CD6DBD61CD75ED7A1D7E1
:10374000E5D72AD870D8B7D800D94AD994D9E0D9C2
:103750002DDA7BDACBDA1BDB6CDBBFDB12DC67DC60
:10376000BCDC13DD6BDDC3DD1DDE78DED4DE31DFD6
:103770008EDFEDDF4DE0AEE00FE172E1D6E13AE23F
:10378000A0E206E36EE3D6E33FE4A9E414E580E5B6
:10379000ECE55AE6C8E637E7A7E718E889E8FCE869
:1037A0006FE9E2E957EACCEA42EBB9EB31ECA9EC7C
:1037B00022ED9BED15EE90EE0CEF88EF04F082F019
:1037C000FFF07EF1FDF17CF2FCF27DF3FEF380F47C
:1037D00002F584F507F68AF60EF792F717F89CF8CB
:1037E00021F9A7F92DFAB4FA3AFBC1FB49FCD0FC48
:1037F00058FDE0FD69FEF1FE7AFF03008C00150123
:103800009E012802B1023B03C5034F04D90462059F
:10381000EC05760600078A0714089E082809B109F6
:103820003B0AC40A4E0BD70B600CE90C710DFA0D64
:10383000820E0A0F920F1910A0102711AE11341228
:10384000BA123F13C4134914CE145115D515581686
:10385000DB165D17DE175F18E0186019E0195E1AB5
:10386000DD1A5B1BD81B541CD01C4B1DC61D401EF3
:10387000B91E311FA91F202096200C218121F4217F
:103880006822DA224B23BC232C249A24082576258F
:10389000E2254D26B72621278927F0275728BC285F
:1038A00021298429E629482AA82A072B652BC22B1F
:1038B0001E2C792CD32C2B2D832DD92D2E2E822E00
:1038C000D52E262F762FC62F13306030AB30F53033
:1038D0003E318631CC31113255329732D8321833DD
:1038E00057339433CF330A3443347B34B134E63422
:1038F00019354B357C35AC35D935063631365B3626
:103900008336AA36CF36F3361537363756377437FF
:103910009037AB37C537DD37F43709381D382F38C6
:103920003F384F385C38683873387C3884388A3888
:103930008F3892389338933892388F388B3885384F
:103940007D3874386A385E385038413831381F381D
:103950000B38F637E037C837AE37933777375937F4
:1039600039371837F636D236AD3686365E363436C7
:103970000936DC35AE357F354E351B35E834B2348B
:103980007C3444340A34D033943356331733D7322B
:10399000953253320E32C93182313A31F030A5308E
:1039A00059300C30BD2F6D2F1C2FCA2E762E222E93
:1039B000CC2D742D1C2DC22C682C0C2CAF2B502B15
:1039C000F12A912A2F2ACD29692904299E283828ED
:1039D000D0276727FD2692262626B9254C25DD24EB
:1039E0006D24FD238B231923A6223222BD214721DA
:1039F000D0205920E11F681FEE1E741EF91D7D1D89
:103A0000001D831C051C871B071B871A071A8619B4
:103A100004198218FF177C17F8167416EF156A152B
:103A2000E4145E14D8135113CA124212BA113111A0
:103A3000A9102010960F0D0F830EF90D6F0DE40CD9
:103A40005A0CCF0B440BB90A2D0AA20917098B088F
:103A500000087407E8065D06D1054605BA042F0480
:103A6000A30318038D0202027701EC006200D7FF66
:103A70004DFFC3FE3AFEB0FD27FD9FFC16FC8EFBFA
:103A800006FB7FFAF8F971F9EBF865F8E0F75BF7F8
:103A9000D6F652F6CFF54CF5CAF448F4C7F346F320
:103AA000C6F247F2C8F14AF1CCF050F0D4EF58EF2B
:103AB000DEEE64EEEBED72EDFBEC84EC0EEC99EBDC
:103AC00024EBB1EA3EEACDE95CE9ECE87DE80FE8F9
:103AD000A2E735E7CAE660E6F7E58FE527E5C1E44A
:103AE0005CE4F8E395E333E3D3E273E214E2B7E195
:103AF0005BE1FFE0A5E04DE0F5DF9EDF49DFF5DEAD
:103B0000A2DE51DE00DEB1DD63DD17DDCBDC81DC62
:103B100039DCF1DBABDB66DB23DBE1DAA0DA60DA90
:103B200022DAE5D9AAD970D937D900D9CAD896D816
:103B300062D831D800D8D2D7A4D778D74DD724D7D8
:103B4000FDD6D6D6B2D68ED66CD64CD62DD60FD6BE
:103B5000F3D5D8D5BFD5A8D591D57DD569D558D5BC
:103B600047D538D52BD51FD515D50CD504D5FED4C2
:103B7000FAD4F7D4F5D4F5D4F7D4FAD4FED404D5D6
:103B80000BD514D51ED52AD537D545D556D567D5ED
:103B90007AD58ED5A4D5BBD5D4D5EED509D626D623
:103BA00045D664D685D6A8D6CCD6F1D618D740D778
:103BB00069D794D7C0D7EDD71CD84CD87DD8B0D80A
:103BC000E4D819D94FD987D9C0D9FAD936DA73DAF6
:103BD000B1DAF0DA30DB72DBB5DBF9DB3EDC84DC5A
:103BE000CCDC14DD5EDDA9DDF5DD42DE90DEDFDE5E
:103BF0002FDF81DFD3DF26E07BE0D0E026E17DE12F
:103C0000D6E12FE289E2E4E240E39DE3FAE359E4FE
:103C1000B8E418E579E5DBE53EE6A1E605E76AE705
:103C2000D0E736E89DE805E96DE9D6E940EAAAEA79
:103C300015EB81EBEDEB59ECC7EC34EDA2ED11EE99
:103C400080EEF0EE60EFD1EF42F0B3F025F197F1A6
:103C500009F27CF2EFF263F3D7F34BF4BFF433F5E0
:103C6000A8F51DF692F607F77CF7F2F767F8DDF88E
:103C700053F9C9F93FFAB4FA2AFBA0FB16FC8CFCF5
:103C800002FD77FDEDFD63FED8FE4DFFC2FF37005C
:103C9000AC002001950109027C02F0026303D60307
:103CA0004804BA042C059E050F067F06EF065F0741
:103CB000CE073D08AC0819098709F3095F0ACB0A4A
:103CC000360BA00B0A0C730CDC0C430DAA0D110E65
:103CD000760EDB0E400FA30F06106810C9102911D5
:103CE0008811E7114412A112FD125813B2130B14DC
:103CF0006414BB1411156715BB150E166016B216A9
:103D0000021751179F17EC1738188318CC1815197C
:103D10005C19A319E8192C1A6E1AB01AF01A2F1B85
:103D20006D1BAA1BE51B1F1C581C901CC61CFB1CF2
:103D30002F1D621D931DC31DF11D1E1E4A1E751EE3
:103D40009E1EC51EEC1E111F341F571F781F971F84
:103D5000B51FD21FED1F07201F2036204B205F20EC
:103D6000722083209320A120AE20B920C320CB2035
:103D7000D220D820DC20DE20DF20DF20DD20D9206B
:103D8000D420CE20C620BD20B220A6209820892095
:103D90007820662052203D2026200E20F51FDA1FB5
:103DA000BD1F9F1F801F5F1F3D1F191FF41ECD1ECB
:103DB000A51E7C1E511E241EF71DC71D971D651DC7
:103DC000321DFD1CC71C8F1C561C1C1CE11BA41B98
:103DD000661B261BE51AA31A5F1A1B1AD4198D1924
:103DE0004419FB18AF1863181518C617761725174E
:103DF000D3167F162A16D4157D152515CC147114EB
:103E00001514B9135B13FC129C123B12DA117711D3
:103E10001311AE104810E10F790F100FA70E3C0ED2
:103E2000D10D640DF70C890C1A0CAB0B3A0BC90AB7
:103E3000570AE4097109FC08870812089C0725073E
:103E4000AD063506BC054205C8044E04D30357032E
:103E5000DB025E02E1016401E6006700E8FF69FF42
:103E6000EAFE6AFEEAFD69FDE8FC67FCE6FB64FB2E
:103E7000E2FA60FADEF95BF9D9F856F8D4F751F7AF
:103E8000CEF64BF6C8F545F5C2F43FF4BCF339F372
:103E9000B6F233F2B0F12EF1ACF029F0A7EF26EF35
:103EA000A4EE23EEA2ED21EDA1EC21ECA1EB21EBA0
:103EB000A2EA24EAA6E928E9ABE82EE8B2E736E769
:103EC000BAE640E6C6E54CE5D3E45BE4E3E36CE345
:103ED000F6E280E20BE297E124E1B1E03FE0CEDFE1
:103EE0005EDFEEDE80DE12DEA5DD39DDCEDC64DCF9
:103EF000FBDB93DB2CDBC6DA61DAFDD99AD938D942
:103F0000D8D878D819D8BCD760D705D7ABD652D671
:103F1000FBD5A5D550D5FCD4A9D458D408D4BAD350
:103F20006DD321D3D6D28DD245D2FFD1BAD177D19C
:103F300034D1F4D0B5D077D03BD000D0C7CF8FCF1D
:103F400059CF24CFF1CEC0CE90CE61CE35CE09CEA2
:103F5000E0CDB8CD92CD6DCD4ACD29CD09CDEBCCFC
:103F6000CFCCB4CC9BCC84CC6ECC5ACC48CC38CC07
:103F700029CC1CCC11CC08CC00CCFACBF6CBF4CBA2
:103F8000F3CBF5CBF8CBFDCB03CC0CCC16CC22CCB1
:103F900030CC3FCC51CC64CC79CC90CCA9CCC4CC27
:103FA000E0CCFECC1ECD40CD64CD89CDB1CDDACDF7
:103FB00005CE32CE60CE91CEC3CEF7CE2DCF65CF1B
:103FC0009ECFDACF17D056D096D0D9D01DD163D19D
:103FD000ABD1F5D140D28DD2DCD22DD37FD3D3D388
:103FE00029D480D4DAD435D591D5F0D550D6B2D6EF
:103FF00015D77AD7E1D749D8B3D81FD98CD9FBD9EF
:104000006BDADDDA51DBC6DB3CDCB5DC2EDDAADDAC
:1040100026DEA5DE24DFA6DF28E0ACE032E1B9E150
:1040200041E2CBE256E3E2E370E4FFE490E521E60F
:10403000B5E649E7DEE775E80DE9A6E941EADCEA1D
:1040400079EB17ECB6EC56EDF8ED9AEE3DEFE2EFBA
:1040500087F02EF1D5F17DF227F3D1F37CF428F52A
:10406000D5F583F632F7E1F791F842F9F4F9A7FABA
:104070005AFB0EFCC3FC78FD2EFEE4FE9BFF5300B2
:104080000B01C4017D023703F203AC04670523066C
:10409000DF069B0758081509D209900A4D0B0B0C37
:1040A000CA0C880D460E050FC40F83104211011271
:1040B000C0127F133E14FD14BC157B163A17F81777
:1040C000B7187519331AF11AAF1B6C1C291DE61DA0
:1040D000A31E5F1F1A20D62091214B220523BE2349
:1040E00077243025E7259F2655270B28C1287529D9
:1040F000292ADD2A8F2B412CF22CA22D512E002FA4
:10410000AD2F5A300631B0315A320333AB3352340B
:10411000F8349C354036E23684372438C338613968
:10412000FD39993A333BCC3B633CFA3C8E3D223E11
:10413000B43E453FD43F6240EF407A4103428B4258
:10414000124396431A449C441C459A45174693468D
:104150000C478447FA476F48E2485349C2492F4AFF
:104160009B4A054B6D4BD34B374C9A4CFA4C594DEF
:10417000B64D114E694EC04E154F684FB94F08509D
:104180005550A050E95030517451B751F751365243
:104190007252AC52E5521A534E538053AF53DD5313
:1041A0000854315457547C549E54BE54DC54F75434
:1041B000115528553C554F555F556D5579558255CC
:1041C00089558E55905590558E558A5583557A55FB
:1041D0006F55615551553E552A551255F954DD54C8
:1041E000BF549F547C54575430540654DA53AB5345
:1041F0007B5347531253DA52A05264522552E45172
:10420000A1515B511351C9507D502E50DD4F8A4F43
:10421000344FDC4E824E264EC74D664D034D9E4CAC
:10422000364CCD4B614BF34A824A104A9B49244994
:10423000AC483148B3473447B3462F46AA452245D8
:1042400099440D447F43F0425E42CA4134419D404F
:104250000340683FCA3E2B3E8A3DE73C423C9B3BC5
:10426000F23A483A9B39ED383E388C37D936243605
:104270006D35B534FB333F338232C33102314030C8
:104280007C2FB72EF12D282D5F2C942BC72AF929CE
:104290002A2959288727B326DF25092531245923C0
:1042A0007F22A421C820EB1F0C1F2D1E4C1D6A1C51
:1042B000881BA41ABF19D918F2170B172216391523
:1042C0004E14631377128A119D10AF0FC00ED00DDC
:1042D000E00CEF0BFD0A0B0A1809250831073D0613
:1042E000480552045D03670270017A0082FF8BFE6D
:1042F00093FD9CFCA4FBABFAB3F9BAF8C2F7C9F67C
:10430000D0F5D7F4DEF3E5F2EDF1F4F0FBEF03EFD7
:104310000AEE12ED1AEC22EB2BEA34E93DE846E70F
:1043200050E65AE565E470E37BE287E193E0A0DFC5
:10433000AEDEBCDDCBDCDADBEADAFBD90DD91FD887
:1043400032D746D65AD570D486D39DD2B5D1CED0E9
:10435000E8CF03CF1FCE3CCD5BCC7ACB9ACABBC98A
:10436000DEC802C827C74DC675C59DC4C7C3F3C202
:104370001FC24DC17DC0AEBFE0BE14BE49BD80BCF2
:10438000B8BBF2BA2DBA6AB9A9B8E9B72AB76EB6FE
:10439000B3B5FAB443B48DB3D9B227B276B1C8B0CD
:1043A0001BB070AFC8AE20AE7BADD8AC37AC98AB0D
:1043B000FAAA5FAAC6A92EA999A806A875A7E6A673
:1043C00059A6CFA546A5C0A43BA4B9A339A3BCA2B6
:1043D00040A2C7A150A1DBA069A0F99F8B9F209F9D
:1043E000B79E509EEB9D899D299DCC9C719C199CEC
:1043F000C29B6F9B1D9BCF9A829A389AF199AC9978
:1044000069992999EC98B098789842980E98DD9718
:10441000AF9783975A9733970E97ED96CE96B196AE
:1044200097967F966A96589648963B963096289629
:10443000239620962096229627962E963896459675
:10444000549666967A969196AB96C796E596069799
:104450002A9750977997A597D397039836986C9891
:10446000A498DE981C995B999D99E299299A739A70
:10447000BF9A0D9B5E9BB29B079C609CBA9C189D4B
:10448000779DD99D3D9EA49E0D9F789FE69F56A047
:10449000C9A03DA1B4A12DA2A9A227A3A7A329A485
:1044A000AEA434A5BDA548A6D5A665A7F6A78AA83B
:1044B00020A9B7A951AAEDAA8BAB2BACCDAC71AD9D
:1044C00017AEBFAE69AF14B0C2B072B123B2D6B2EC
:1044D0008CB342B4FBB4B6B572B630B7F0B7B1B86E
:1044E00074B939BAFFBAC7BB91BC5CBD29BEF7BE6F
:1044F000C7BF98C06BC13FC214C3EBC3C4C49EC541
:1045000079C655C733C812C9F2C9D4CAB6CB9ACC3A
:104510007FCD65CE4DCF35D01ED109D2F4D2E1D3B7
:10452000CED4BDD5ACD69CD78DD87FD972DA66DB18
:104530005ADC4FDD45DE3BDF33E02BE123E21CE3B9
:1045400016E410E50BE606E702E8FEE8FBE9F8EA08
:10455000F5EBF3ECF1EDF0EEEEEFEDF0ECF1ECF26B
:10456000EBF3EBF4EBF5EBF6EBF7EBF8EBF9EBFA3F
:10457000EBFBEBFCEBFDEBFEEBFFEA00EA01E902F3
:10458000E803E704E505E406E107DF08DC09D90AEA
:10459000D50BD10CCC0DC70EC20FBC10B511AE128D
:1045A000A6139D1494158A168017741868195C1A3E
:1045B0004E1B3F1C301D201E0F1FFD1FEA20D62161
:1045C000C122AC2395247D2564264A272F28132950
:1045D000F529D72AB72B962C732D502E2B2F05306B
:1045E000DE30B5318B32603333340535D535A43602
:1045F00071373D380839D139983A5E3B223CE53C69
:10460000A63D663E243FE03F9A4053410A42C042E5
:1046100073432544D54484453046DB4684472B48C4
:10462000D0487449154AB54A534BEF4B894C204D3D
:10463000B64D4B4EDD4E6D4FFB4F8750115199518A
:104640001F52A3522553A45322549E5417558F55DD
:1046500004567756E8565757C4572F589758FD5861
:104660006159C359235A815ADC5A355B8C5BE15B33
:10467000335C845CD25C1E5D675DAF5DF45D375E6C
:10468000775EB65EF25E2C5F635F995FCC5FFD5F25
:104690002B6057608160A960CF60F2601361326166
:1046A0004E61696181619661AA61BB61CA61D7612E
:1046B000E161EA61F061F361F561F461F261EC617D
:1046C000E561DC61D061C261B261A0618B6175613D
:1046D0005C61416124610461E360BF609A60726063
:1046E00048601C60EE5FBE5F8C5F575F215FE95ED4
:1046F000AE5E725E335EF35DB05D6C5D255DDD5C6C
:10470000935C465CF85BA85B565B025BAC5A545A00
:10471000FB599F594259E35882581F58BB57555768
:10472000ED5683561856AA553C55CB545954E5536B
:104730007053F852805205528A510C518D500D50D1
:104740008A4F074F824EFB4D734DEA4C5F4CD34B63
:10475000454BB74A264A954902496D48D8474147D3
:10476000A94610467545DA443D449F4300435F42E5
:10477000BE411B417840D33F2E3F873EDF3D373D52
:104780008D3CE33B373B8B3ADE3930398138D137CA
:1047900021376F36BD350A355734A233ED32383202
:1047A0008131CA3013305B2FA22EE92D2F2D742CAE
:1047B000BA2BFE2A422A8629C9280C284F2791267F
:1047C000D325142555249623D72217225721972025
:1047D000D71F161F551E951DD41C131C511B901A54
:1047E000CF190E194C188B17CA16081647158614C0
:1047F000C513041343128311C2100210420F820E1C
:10480000C20D030D440C850BC60A080A4A098C0820
:10481000CF07120756069A05DE0423046903AE0289
:10482000F5013C018300CBFF13FF5CFEA6FDF0FC0D
:104830003BFC87FBD3FA20FA6DF9BBF80AF85AF76C
:10484000AAF6FBF54DF59FF4F3F347F39CF2F2F172
:1048500048F1A0F0F8EF51EFABEE06EE62EDBFECE1
:104860001DEC7CEBDBEA3CEA9DE900E964E8C8E783
:104870002EE794E6FCE565E5CFE439E4A5E312E331
:1048800081E2F0E160E1D2E044E0B8DF2DDFA3DEB9
:104890001ADE92DD0CDD86DC02DC80DBFEDA7DDAFE
:1048A000FED980D903D988D80DD894D71CD7A6D6DD
:1048B00031D6BDD54AD5D8D468D4F9D38CD31FD33B
:1048C000B4D24BD2E2D17BD116D1B1D04ED0ECCF05
:1048D0008CCF2DCFCFCE72CE17CEBDCD65CD0ECD28
:1048E000B8CC63CC10CCBFCB6ECB1FCBD1CA85CAA2
:1048F0003ACAF0C9A8C961C91BC9D7C894C853C866
:1049000012C8D3C796C75AC71FC7E5C6ADC676C675
:1049100040C60CC6D9C5A8C577C548C51BC5EEC4D9
:10492000C3C49AC471C44AC424C400C4DCC3BAC397
:104930009AC37AC35CC33FC323C309C3F0C2D8C2BE
:10494000C1C2ACC298C285C273C262C253C245C260
:1049500038C22CC222C218C210C209C203C2FEC190
:10496000FAC1F8C1F7C1F6C1F7C1F9C1FCC100C273
:1049700006C20CC213C21CC225C230C23BC248C20E
:1049800056C264C274C285C296C2A9C2BDC2D1C297
:10499000E7C2FDC215C32DC346C361C37CC398C320
:1049A000B5C3D2C3F1C310C431C452C474C497C4D4
:1049B000BBC4DFC404C52AC551C579C5A1C5CAC5D4
:1049C000F4C51FC64AC676C6A3C6D0C6FFC62DC745
:1049D0005DC78DC7BEC7EFC721C854C887C8BBC84D
:1049E000F0C825C95BC991C9C8C9FFC937CA6FCA10
:1049F000A8CAE2CA1BCB56CB91CBCCCB08CC44CCBB
:104A000081CCBECCFCCC3ACD78CDB7CDF7CD36CE6F
:104A100076CEB7CEF7CE38CF7ACFBCCFFECF40D050
:104A200083D0C6D009D14DD191D1D5D119D25ED282
:104A3000A3D2E8D22DD373D3B9D3FFD345D48BD42B
:104A4000D2D419D560D5A7D5EED535D67DD6C5D665
:104A50000CD754D79CD7E4D72DD875D8BDD806D954
:104A60004ED997D9E0D928DA71DABADA03DB4CDB10
:104A700095DBDDDB26DC6FDCB8DC01DD4ADD93DDB8
:104A8000DCDD25DE6EDEB7DE00DF48DF91DFDADF5A
:104A900022E06BE0B3E0FCE044E18CE1D5E11DE213
:104AA00065E2ADE2F5E23CE384E3CCE313E45AE4EF
:104AB000A2E4E9E430E577E5BDE504E64AE691E6FF
:104AC000D7E61DE763E7A9E7EFE734E87AE8BFE850
:104AD00004E949E98EE9D3E917EA5CEAA0EAE4EAE5
:104AE00028EB6BEBAFEBF3EB36EC79ECBCECFFECCB
:104AF00041ED84EDC6ED08EE4AEE8CEECEEE0FEF02
:104B000051EF92EFD3EF14F055F095F0D6F016F187
:104B100056F196F1D6F116F255F295F2D4F213F35E
:104B200052F391F3CFF30EF44CF48AF4C9F407F581
:104B300044F582F5C0F5FDF53BF678F6B5F6F2F6EC
:104B40002FF76CF7A8F7E5F721F85EF89AF8D6F892
:104B500012F94EF98AF9C6F902FA3DFA79FAB4FA6D
:104B6000F0FA2BFB66FBA2FBDDFB18FC53FC8EFC72
:104B7000C9FC04FD3FFD7AFDB5FDEFFD2AFE65FE93
:104B8000A0FEDAFE15FF50FF8AFFC5FF00003A00C5
:104B90007500AF00EA0025015F019A01D5011002FE
:104BA0004A028502C002FB0236037103AC03E7032D
:104BB00022045D049904D4040F054B058605C20543
:104BC000FD0539067506B106ED0629076507A1073B
:104BD000DE071A0857089308D0080D094A09870903
:104BE000C409020A3F0A7D0ABB0AF80A360B750B94
:104BF000B30BF10B300C6E0CAD0CEC0C2B0D6A0DE5
:104C0000AA0DE90D290E690EA90EE90E290F6A0FEA
:104C1000AA0FEB0F2C106D10AE10F01031117311A4
:104C2000B511F71139127B12BE120013431386130C
:104C3000C9130C1450149414D7141B155F15A31525
:104C4000E8152C167116B616FB1640178517CB17EC
:104C5000101856189C18E21828196E19B519FB1966
:104C6000421A881ACF1A161B5D1BA51BEC1B331C9E
:104C70007B1CC31C0A1D521D9A1DE21D2A1E731E99
:104C8000BB1E031F4C1F941FDD1F25206E20B72065
:104C9000FF2048219121DA2123226C22B522FE2215
:104CA00047239023D92322246A24B324FC244525B6
:104CB0008E25D7251F266826B126F92642278A2762
:104CC000D2271B286328AB28F3283A298229CA292E
:104CD000112A582A9F2AE62A2D2B742BBA2B002C36
:104CE000462C8C2CD22C172D5C2DA12DE62D2A2E96
:104CF0006E2EB22EF62E392F7C2FBF2F013043306F
:104D00008530C730083148318931C93108324832DD
:104D10008732C532033341337E33BB33F733333409
:104D20006E34A934E4341D3557359035C835003616
:104D300037366E36A436DA360F3744377837AB3726
:104D4000DE37103841387238A238D23800392F395E
:104D50005C398939B539E0390B3A353A5E3A863AE9
:104D6000AE3AD53AFB3A203B443B683B8B3BAD3BEC
:104D7000CE3BEF3B0E3C2D3C4A3C673C833C9E3C8B
:104D8000B93CD23CEA3C023D183D2E3D423D563DE9
:104D9000693D7A3D8B3D9B3DA93DB73DC43DCF3D2F
:104DA000DA3DE33DEC3DF33DF93DFF3D033E063E7C
:104DB000083E093E083E073E053E013EFC3DF63DED
:104DC000EF3DE73DDD3DD33DC73DBA3DAC3D9D3DAB
:104DD0008C3D7A3D673D533D3E3D273D0F3DF63CC2
:104DE000DC3CC03CA33C853C653C453C233CFF3B54
:104DF000DB3BB53B8E3B653B3C3B113BE43AB73A72
:104E0000883A573A263AF339BF39893952391A392B
:104E1000E038A53869382C38ED37AC376B37283790
:104E2000E4369E3657360F36C5357A352E35E034A2
:104E300091344034EF339C334733F1329A3242326B
:104E4000E8318D313031D23073301330B12F4E2FE5
:104E5000E92E842E1D2EB42D4B2DE02C732C062C08
:104E6000972B272BB52A422ACE295929E3286B28CC
:104E7000F2277727FC267F260126822501257F241D
:104E8000FD237923F3226D22E5215C21D2204720E6
:104E9000BB1F2D1F9F1E0F1E7E1DED1C5A1CC61B07
:104EA000301B9A1A031A6B19D11837189B17FF1663
:104EB0006216C31524158314E21340139D12F911D1
:104EC0005411AE1007105F0FB70E0D0E630DB80C26
:104ED0000C0C600BB20A040A5509A508F507440733
:104EE0009206DF052C057804C4030F035902A301C1
:104EF000EC0034007CFFC3FE0AFE51FD96FCDCFB97
:104F000021FB65FAA9F9EDF830F873F7B5F6F7F576
:104F100039F57AF4BBF3FCF23DF27DF1BDF0FDEF23
:104F20003DEF7CEEBCEDFBEC3AEC79EBB8EAF7E94F
:104F300035E974E8B3E7F1E630E66FE5AEE4ECE3BB
:104F40002BE36AE2AAE1E9E028E068DFA8DEE8DD19
:104F500028DD69DCAADBEBDA2CDA6ED9B0D8F3D71E
:104F600036D779D6BDD501D545D48BD3D0D216D27C
:104F70005DD1A4D0ECCF35CF7ECEC7CD12CD5DCCE8
:104F8000A8CBF5CA42CA90C9DEC82EC87EC7CFC614
:104F900021C674C5C8C41CC472C3C8C220C278C1AB
:104FA000D1C02CC087BFE4BE41BEA0BDFFBC60BC69
:104FB000C2BB25BB8ABAEFB956B9BEB827B892B7FB
:104FC000FDB66AB6D9B548B5BAB42CB4A0B315B31A
:104FD0008CB204B27DB1F8B075B0F2AF72AFF3AE7F
:104FE00075AEFAAD7FAD07AD8FAC1AACA6AB34ABE6
:104FF000C3AA55AAE7A97CA912A9AAA844A8E0A710
:105000007DA71CA7BDA660A604A6ABA553A5FDA4BD
:10501000A9A457A407A4B9A36CA322A3DAA293A2BC
:105020004FA20CA2CCA18DA151A116A1DEA0A8A0D7
:1050300073A041A011A0E39FB79F8D9F659F409FE4
:105040001C9FFB9EDB9EBE9EA39E8A9E749E5F9EBF
:105050004D9E3D9E2F9E239E1A9E139E0D9E0B9E3F
:105060000A9E0C9E0F9E159E1E9E289E359E449E57
:10507000559E699E7E9E969EB19ECD9EEC9E0D9FF6
:10508000309F569F7E9FA89FD49F02A033A066A00A
:105090009CA0D3A00DA149A188A1C8A10BA250A298
:1050A00098A2E1A22DA37BA3CCA31EA473A4CAA49F
:1050B00023A57EA5DCA53CA69EA602A768A7D0A72F
:1050C0003BA8A8A817A988A9FBA970AAE8AA61AB60
:1050D000DDAB5BACDAAC5CADE0AD66AEEEAE78AF4E
:1050E00004B092B022B1B4B149B2DFB276B310B419
:1050F000ACB44AB5EAB58BB62FB7D4B77BB824B9F0
:10510000CFB97BBA2ABBDABB8CBC3FBDF5BDACBE08
:1051100065BF1FC0DBC099C159C21AC3DDC3A1C49A
:1051200067C52EC6F7C6C2C78EC85BC92ACAFACAE7
:10513000CCCB9FCC74CD4ACE21CFFACFD4D0AFD137
:105140008CD269D348D428D50AD6ECD6D0D7B5D8D6
:105150009BD982DA6ADB53DC3EDD29DE15DF02E013
:10516000F0E0DFE1CFE2C0E3B1E4A3E597E68BE74F
:105170007FE875E96BEA62EB59EC51ED4AEE43EFDB
:105180003DF038F133F22EF32AF426F523F620F71A
:105190001EF81BF91AFA18FB17FC16FD15FE15FF71
:1051A0001400140114021403140414051406140743
:1051B00014081409140A140B140C130D130E120FF7
:1051C00011100F110E120C130A14071504160117F3
:1051D000FD17F918F419EF1AE91BE31CDC1DD41EA6
:1051E000CC1FC420BA21B022A52399248D25802666
:1051F000722763285329422A312B1E2C0B2DF62DA2
:10520000E12ECA2FB2309A318032653349342B35C2
:105210000D36ED36CC37AA388639613A3B3B143C23
:10522000EB3CC03D943E673F38400841D641A34225
:105230006E4338440045C6458B464E470F48CF481D
:105240008D49494A044BBD4B734C294DDC4D8D4E65
:105250003D4FEB4F96504051E8518E523253D4534C
:1052600074541255AE554856DF56755709589A581A
:105270002A59B759425ACB5A515BD65B585CD85C15
:10528000565DD25D4B5EC25E365FA95F1960876076
:10529000F2605B61C26126628862E76245639F6378
:1052A000F8634D64A164F26440658C65D6651D6643
:1052B0006266A466E36621675B679367C967FC67FC
:1052C0002C685A688668AF68D568F9681A693869C1
:1052D00054696E6985699969AB69BA69C769D169A9
:1052E000D869DD69DF69DF69DC69D769CF69C469BD
:1052F000B769A7699569806968694E6931691269FA
:10530000F168CC68A5687C6850682268F167BD6761
:1053100087674F671367D666966653660E66C765DE
:105320007D653065E26490643D64E6638E6333635B
:10533000D66276621462AF614861DF6074600660B5
:10534000965F245FAF5E385EBF5D435DC65C465CC2
:10535000C45B3F5BB95A305AA65919598A58F95754
:105360006657D1563956A05505556754C85327532B
:105370008452DF5137518F50E44F374F894ED84D0B
:10538000264D724CBC4B054B4C4A9149D5481648AA
:1053900056479546D2450D4547447F43B642EB41BB
:1053A0001F415140823FB23EE03D0C3D383C623BE4
:1053B0008A3AB239D838FD372137443665358534D5
:1053C000A433C332E031FC301730312F4A2E622D26
:1053D000792C8F2BA52AB929CD28E027F22604267F
:1053E000152525243423432251215F206C1F781E6C
:1053F000841D8F1C9A1BA51AAF19B918C217CB169A
:10540000D415DD14E513ED12F511FC1004100B0F8B
:10541000120E1A0D210C280B2F0A36093D084507DC
:105420004C0654055B0463036C0274017D0085FF28
:105430008FFE98FDA2FCADFBB7FAC2F9CEF8DAF701
:10544000E7F6F4F502F510F41FF32FF23FF150F0F8
:1054500062EF75EE88ED9CECB1EBC6EADDE9F4E8AD
:105460000DE826E740E65BE577E495E3B3E2D2E1B9
:10547000F3E014E037DF5BDE80DDA6DCCEDBF6DABE
:1054800020DA4CD978D8A6D7D5D606D638D56BD45D
:10549000A0D3D7D20ED248D183D0BFCFFDCE3CCE41
:1054A0007DCDC0CC04CC4ACB92CADBC926C973C817
:1054B000C1C712C764C6B7C50DC564C4BDC318C390
:1054C00075C2D4C135C197C0FCBF62BFCBBE35BE6B
:1054D000A1BD0FBD80BCF2BB66BBDDBA55BAD0B969
:1054E0004CB9CBB84CB8CEB753B7DBB664B6EFB552
:1054F0007DB50CB59EB432B4C9B361B3FCB299B2F8
:1055000038B2D9B17DB123B1CBB075B022B0D1AF33
:1055100082AF36AFECAEA4AE5EAE1BAEDAAD9BADE5
:105520005FAD25ADEDACB8AC84AC54AC25ACF9ABFB
:10553000CFABA8AB83AB60AB40AB22AB06ABEDAA65
:10554000D5AAC1AAAEAA9EAA90AA85AA7CAA75AA23
:1055500071AA6FAA6FAA71AA76AA7DAA86AA92AA30
:10556000A0AAB0AAC3AAD7AAEEAA08AB23AB41ABA4
:1055700061AB83ABA8ABCEABF7AB22AC50AC7FAC8E
:10558000B1ACE5AC1AAD53AD8DADC9AD08AE48AE0A
:105590008BAECFAE16AF5FAFAAAFF7AF46B097B046
:1055A000EAB03FB196B1EEB149B2A6B205B365B368
:1055B000C8B32CB492B4FAB464B5D0B53DB6ACB6A9
:1055C0001DB790B705B87BB8F3B86CB9E8B965BA40
:1055D000E3BA63BBE5BB69BCEDBC74BDFCBD85BE75
:1055E00010BF9DBF2BC0BAC04BC1DDC171C205C386
:1055F0009CC333C4CCC466C502C69EC63CC7DBC7C9
:105600007BC81DC9BFC963CA07CBADCB54CCFCCC8A
:10561000A5CD4FCEF9CEA5CF52D0FFD0AED15DD221
:105620000DD3BED370D422D5D6D58AD63ED7F4D7E3
:10563000AAD860D918DACFDA88DB41DCFADCB4DD2D
:105640006EDE29DFE5DFA0E05CE119E2D6E293E35C
:1056500050E40EE5CCE58AE648E707E8C5E884E9CA
:1056600043EA02EBC1EB80EC3FEDFEEDBDEE7CEFDB
:105670003BF0FAF0B9F177F235F3F4F3B2F46FF5E9
:105680002DF6EAF6A7F764F820F9DCF998FA53FB4F
:105690000DFCC8FC82FD3BFEF4FEACFF64001B0168
:1056A000D10187023C03F103A50458050B06BD0692
:1056B0006E071E08CD087C092A0AD70A830B2E0C18
:1056C000D80C820D2A0ED10E780F1D10C210651154
:1056D0000712A9124913E81386142315BE1559168B
:1056E000F2168A172118B6184A19DE196F1A001B0C
:1056F0008F1B1D1CA91C341DBE1D461ECD1E531F15
:10570000D71F5920DB205A21D9215522D1224A23E3
:10571000C3233924AE242225942504267326E026AB
:105720004C27B6271E288528EA284D29AF290F2A9D
:105730006E2ACA2A252B7F2BD62B2C2C802CD22CE0
:10574000232D722DBF2D0A2E542E9C2EE22E262F95
:10575000692FA92FE82F253061309A30D2300831D7
:105760003C316E319F31CD31FA3125324E327632B5
:105770009B32BF32E13201331F333B3356336F3339
:1057800086339B33AE33C033CF33DD33E933F3336A
:10579000FC33023407340A340C340B340934053436
:1057A000FF33F733EE33E333D633C733B733A533A1
:1057B00091337B3364334B3330331433F632D63288
:1057C000B53292326D3247321F32F631CA319E31D4
:1057D0006F313F310E31DB30A63070303830FF2F63
:1057E000C42F882F4A2F0B2FCB2E882E452E002E0C
:1057F000BA2D722D292DDE2C922C452CF72BA72BA0
:10580000562B032BAF2A5A2A042AAD295429FA28E9
:105810009F284328E62787272727C72665260226AD
:105820009E253925D3246C2404249B233123C622AE
:105830005A22ED217F211121A1203120C01F4E1FAE
:10584000DB1E681EF41D7F1D091D931C1C1CA41B60
:105850002C1BB31A391ABF194519C9184D18D1177D
:105860005417D7165916DB155D15DE145E14DE13BA
:105870005E13DE125D12DC115B11D9105810D60FC9
:10588000530FD10E4F0ECC0D490DC60C430CC00B5F
:105890003D0BBA0A370AB4093109AE082B08A9072B
:1058A0002607A40621069F051D059B0419049803DD
:1058B000170396021502950115019600170098FF2F
:1058C00019FF9BFE1EFEA1FD24FDA8FC2CFCB1FBD4
:1058D00037FBBDFA43FACAF952F9DAF863F8EDF783
:1058E00078F703F78EF61BF6A8F536F5C5F454F4F1
:1058F000E5F376F308F39BF22EF2C3F158F1EFF0E3
:1059000086F01EF0B7EF51EFECEE88EE25EEC4ED19
:1059100063ED03EDA4EC46ECEAEB8EEB33EBDAEA55
:1059200082EA2BEAD5E980E92CE9DAE889E839E866
:10593000EAE79CE750E704E7BBE672E62BE6E4E51E
:10594000A0E55CE51AE5D9E499E45BE41EE4E3E351
:10595000A9E370E338E302E3CDE29AE268E238E2D9
:1059600008E2DBE1AEE183E15AE132E10BE1E6E09E
:10597000C2E0A0E07FE060E042E025E00AE0F1DF85
:10598000D9DFC2DFADDF99DF87DF76DF67DF59DF81
:105990004DDF42DF39DF31DF2BDF26DF22DF20DF83
:1059A00020DF21DF23DF27DF2DDF34DF3CDF46DF91
:1059B00051DF5EDF6CDF7CDF8DDFA0DFB4DFC9DFAE
:1059C000E0DFF8DF12E02DE04AE068E087E0A8E0E1
:1059D000CBE0EEE013E13AE161E18AE1B5E1E1E13A
:1059E0000EE23CE26CE29DE2D0E204E339E36FE3D5
:1059F000A7E3E0E31AE455E492E4D0E40FE54FE5D1
:105A000091E5D3E517E65CE6A3E6EAE633E77CE753
:105A1000C7E713E860E8AEE8FDE84DE99FE9F1E982
:105A200044EA98EAEEEA44EB9BEBF4EB4DECA7EC8E
:105A300002ED5EEDBBED18EE77EED6EE36EF97EFAA
:105A4000F9EF5CF0BFF024F189F1EEF155F2BCF210
:105A500023F38CF3F5F35FF4C9F434F5A0F50CF6F9
:105A600078F6E6F653F7C2F731F8A0F810F980F9A6
:105A7000F0F961FAD3FA45FBB7FB29FC9CFC0FFD5A
:105A800083FDF6FD6AFEDFFE53FFC8FF3D00B20056
:105A900027019C0112028802FD027303E9035F04DF
:105AA000D5044B05C0053606AC06220798070D083D
:105AB0008308F8086D09E209570ACC0A400BB40BB9
:105AC000280C9C0C100D830DF60D680EDA0E4C0F91
:105AD000BD0F2E109F100F117F11EE115D12CB1212
