:020000040800F2
:10400000F4110020154200085D4200085D420008DE
:104010005D4200085D4200085D42000800000000AB
:104020000000000000000000000000005D420008E9
:104030005D420008000000005D420008F9450008EC
:104040005D4200085D4200085D4200085D420008D4
:104050005D4200085D4200085D4200085D420008C4
:104060005D4200085D4200085D4200085D420008B4
:104070005D4200085D4200085D4200085D420008A4
:104080005D4200085D4200085D420008000000003B
:104090000000000000000000000000005D42000879
:1040A0005D4200085D4200085D4200085D42000874
:1040B0005D4200085D4200085D4200085D42000864
:1040C0005D4200085D4200085D4200085D42000854
:1040D0005D420008514300085D4200085D4200084F
:1040E0005D4200085D4200085D42000800000000DB
:1040F00000000000000000000000000000000000C0
:1041000000000000000000000000000000000000AF
:104110000000000000000000214E00085D42000881
:104120005FF808F1224A038890429BB212D002F550
:10413000006290420ED0B0F1804F0BD0A2F59832C1
:10414000904207D002F58062904203D002F580626F
:10415000904203D14A8823F070031343154A9042DA
:1041600008D002F58062904204D023F44073CA88DC
:104170009BB2134303808B8883850B8803850C4B8C
:1041800098420FD003F5006398420BD003F54063CB
:10419000984207D003F58063984203D003F580630B
:1041A000984201D10B7A038601238382704700BFB6
:1041B000002C0140001000404FF6FF738380002365
:1041C0000380C380438003727047038819B19BB298
:1041D00043F0010303E023F001031B041B0C0380E5
:1041E000704783899BB20AB1194301E023EA0101B8
:1041F00081817047838823F070031B041B0C83802C
:1042000083889BB2194381807047C94389B2018278
:104210007047000008B50C4A0C4B0D4903E052F8FA
:10422000040B43F8040B8B42F9D30A480A494FF0B8
:1042300000028842B8BF40F8042BFADB00F016F801
:10424000BDE8084000F0E4B9F48B0108000000204C
:104250009008002090080020F40D0020FEE7EFF306
:104260001080704780F3108870470000314B82B097
:104270001A6842F001021A6059682F4A0A405A60CF
:104280001A6822F0847222F480321A601A6822F4CA
:1042900080221A605A6822F4FE025A604FF41F020C
:1042A0009A600022DA62009201921A6842F4803227
:1042B0001A601A6802F400320192009A01320092E8
:1042C000019A1AB9009AB2F5A06FF2D1194B1B6886
:1042D00013F4003318BF01230193019B012B23D159
:1042E000144B5A685A605A685A605A685A605A6839
:1042F00022F47C125A605A6842F498125A601A6882
:1043000042F080721A6019680A4A8901FBD5536825
:1043100023F003035360536843F002035360536870
:1043200003F00C03082BFAD1044B4FF000629A60A3
:1043300002B07047001002400000FFF800ED00E0FE
:10434000024840F22771012200F03DBB00380140D5
:10435000202110B5304800F057FB012824D12E4809
:1043600000F04EFB2D4A1368F3B1597AE1B9DB68CE
:1043700018701368DA680132DA60D9689A69914274
:1043800004BF5A69DA601A68013A1A605A68013241
:104390005A601A680AB901225A725A680AB1002290
:1043A0001A72DB6903B198471B4CA3891B0631D5F0
:1043B0008021204600F028FB01282BD1184B1A7AC7
:1043C000002A1FD11A6911781A6901321A61186915
:1043D0009A69904204BF5A691A61114B1A680132F6
:1043E0001A605A68013A5A605A680AB901221A7268
:1043F0001B6813B10A4B00225A720748BDE81040EF
:1044000000F0FABA204640F227710022BDE81040C1
:1044100000F0D9BA10BD00BF00380140900800205C
:10442000880D002030B5154689B0254A0446009312
:1044300024482B4600F008FB01214FF4804000F097
:10444000A3F90420012100F09FF91F4D4FF40073E0
:10445000ADF81C3003238DF81E302846182307A919
:104460008DF81F3000F036F84FF4806307A9ADF8DF
:104470001C30284604238DF81F3000F02BF803A8C9
:1044800000F08AFA0394114C03A9204600F02CFA9C
:104490002046002240F2277100F095FA20460122C2
:1044A00040F2255100F08FFA094BF02283F82523C2
:1044B00020225A602046012100F079FA09B030BD6F
:1044C00041430008880D00200008014000380140E9
:1044D00000E100E0CB782DE9F04303F00F02DB06AA
:1044E00048BF8B780E8848BF1A4316F0FF0F1FD0C5
:1044F000046800234FF001084FF00F0C08FA03F78F
:1045000007EA0605BD420FD19F000CFA07F912FA1F
:1045100007F724EA09043C43CF78282F01D14561ED
:1045200002E0482F08BF05610133082BE6D1046083
:104530000E88FF2E21D9446800234FF001084FF068
:104540000F0C03F1080708FA07F707EA0605BD4252
:104550000FD19F000CFA07F912FA07F724EA0904B1
:104560003C43CF78282F01D1456102E0482F08BF96
:1045700005610133082BE4D14460BDE8F083806815
:1045800080B27047016170474161704740F6FE722A
:10459000824030B5084B1C6824EA020291E83000E2
:1045A00025438C682543CC6845EA040111FA00F0E4
:1045B0001043186030BD00BF00740040002303604A
:1045C00043608360C3607047064B012219B182408B
:1045D00019680A4303E08240196821EA02021A605E
:1045E000704700BF0074004008B500F0ABFFBDE8A5
:1045F000084000F0F3BA000008B5044B01221A701D
:1046000000F048FABDE8084000F05ABA94080020CB
:1046100073B572B62C4C2D4BA36062B62C4A0023A6
:1046200010214FF41640FFF7FDFE1020012100F08D
:10463000ABF84FF44073ADF804300323254801A9CB
:104640008DF8063010238DF80730FFF743FF00F098
:104650002BFA00F0B9FF00F03BFA1F4B186801F08D
:104660007FFB17A3D3E9002301F0F0FB01F0B0FEBC
:10467000B0F1807F09D2194BF0220138586084F8DC
:10468000232000229A6007221A60154D154C00263F
:104690002B787BB1237B2E7033B1A06801F070FBC7
:1046A00002460B46606803E04FF0FF300022002313
:1046B00000F0DEFEFFF798FFEAE700BFAFF30080EF
:1046C0007B14AE47E17A843F00ED00E00040000833
:1046D000E9450008001001400000002010E000E063
:1046E000D00D002028000020034B5A6822F44042DD
:1046F00010435860704700BF0010024010B51E4BB9
:104700005A6802F00C02042A01D0082A02D01B4B7E
:10471000036011E05A685968C2F383420232C90348
:1047200001D4174B06E0DB6A144903F00F03013391
:10473000B1FBF3F35A4302600F4A124B516804680D
:10474000C1F30311595C34FA01F141605468C4F3B8
:1047500002241C5D31FA04F484605468C4F3C2245A
:104760001C5DE140C1605268C2F381329B181B7C22
:10477000B1FBF3F1016110BD0010024000127A009C
:1047800000093D0014000020044B9A6909B1104350
:1047900001E022EA00009861704700BF001002406B
:1047A000044BDA6909B1104301E022EA0000D86144
:1047B000704700BF0010024043680A6823F470236A
:1047C00023F4807313430A7910B543EA022343604C
:1047D0008A68CB6884681A43084B234013434A799C
:1047E00043EA420383600B7CC26A013B22F47002FD
:1047F000DBB242EA0353C36210BD00BFFDF7F1FF15
:10480000836811B143F0010301E023F001038360E9
:104810007047836843F00803836070478068C0F383
:10482000C0007047836843F004038360704780686A
:10483000C0F380007047836811B143F4A00301E026
:1048400023F4A00383607047092970B54FF0030477
:104850000BD94C4307251E3CA540A340C66826EA59
:10486000050545EA0304C4600AE04C430725A5405A
:1048700013FA04F4066926EA050545EA0403036110
:10488000062A4FF005030BD8013A53431F229A40E2
:1048900011FA03F3446B24EA02021343436370BD2D
:1048A0000C2A0BD853431F22233B9A409940046B98
:1048B00024EA020242EA0103036370BD53431F224C
:1048C000413B9A409940C46A24EA020242EA010349
:1048D000C36270BDC06C80B27047036819420CBFE0
:1048E000002001207047000030B5038ACA8823F4F5
:1048F00040531B041B0C134303820D468389098913
:10490000AA8823F4B0530A43698923F00C030A43AD
:104910001B041B0C92B213438381838AAA8923F45C
:1049200040731B041B0C87B013430446838201A809
:10493000FFF7E4FE174BA2899C420CBF049B039B2C
:1049400012B2002A4FF019012A6801FB03F101DAC3
:10495000520000E092006423B1FBF2F1B1FBF3F2EC
:104960001201100903FB1011A08900B2002806DA19
:10497000C9003231B1FBF3F303F0070305E009018D
:104980003231B1FBF3F303F00F031A4392B22281E9
:1049900007B030BD003801404FF4165303600C22BD
:1049A00000238380C3800381428183817047838990
:1049B00019B19BB243F4005303E023F400531B04EA
:1049C0001B0C83817047C1F3421310B501F01F0126
:1049D000012414FA01F1A34201D10C3004E0022BAE
:1049E00001D1103000E0143003680AB1194301E02E
:1049F00023EA0101016010BDC905C90D818070471E
:104A00008088C005C00D7047038819420CBF002084
:104A10000120704708B5FFF722FC72B608BD10B53B
:104A20000446FFF7F7FF636923616369E360A269E6
:104A30006369D31A236001220023636022726372C8
:104A4000BDE81040FFF70EBCF8B51F46069B0446B4
:104A50000D4616462BB9084601F0E0FC606108B926
:104A6000FEE74361636920465D19A561E66127623F
:104A7000BDE8F840FFF7D3BF044B1A680AB9044AEF
:104A80001A601A68101818601046704798080020BD
:104A9000F8110020034B1A6812B11A68013A1A6023
:104AA000704700BF9C08002007B500220348102172
:104AB00013460092FFF7C8FF0EBD00BFAC0D0020EB
:104AC000024B1A680AB1013A1A607047AC0800201C
:104AD00070B5042086B00121FFF756FE1020012199
:104AE000FFF752FE4FF400700121FFF74DFE032344
:104AF0008DF81630102306AC8DF81730402324F8BB
:104B0000043D21462448FFF7E5FC482321468DF863
:104B1000173021480F23ADF814300026FFF7DAFCD8
:104B2000072521461D488DF81760ADF81450FFF792
:104B3000D1FC4FF40040FFF7D7FD4FF46023012470
:104B4000029317484FF400636946039300968DF86B
:104B500004608DF805608DF81040FFF72DFE1048B9
:104B60000A2122462B46FFF76FFE0D482146FFF72C
:104B700047FE0B48FFF74DFE0948FFF74FFE0028A0
:104B8000FAD10748FFF74EFE0548FFF750FE002810
:104B9000FAD106B070BD00BF00080140001001400E
:104BA0000024014010B504460B48FFF793FE23682C
:104BB0000001C01A03EBA01063682060C83398425C
:104BC00084BFA0F1C80363606368C83B984201D208
:104BD000C830606010BD00BF0024014070B56E4C4D
:104BE0002379062B00F2D780DFE813F007000A00D4
:104BF000430052006B006E009C0068480A213AE0B6
:104C000002216648FFF769FE012840F0C48023793D
:104C100001332371624C2046FFF7C4FF6468614B87
:104C200044F61E62E318402193425F4803D8FFF721
:104C3000A9FC002010E0FFF7A7FCB4F5002FCBBFC4
:104C4000A4F50224A4F5FA24A4F5E264A4F50F6403
:104C500041F27A4094FBF0F0544B1A68904200F015
:104C60009A801860524B01221A70BDE8704000F023
:104C70005BBC4A480B2101220723FFF7E5FD4748AB
:104C80000121FFF7D8FD444B1A7901321A7170BD2A
:104C900002214248FFF721FE012805467BD12379F6
:104CA00001332371434C2046FFF77CFF3F4B626882
:104CB0005968120B8A426ED05A601B7B002B6AD057
:104CC0001AE036480C21D6E702213448FFF705FEEA
:104CD000012805465FD1237901332371364C2046E4
:104CE000FFF760FF354B62689A42304B07DD1A7B55
:104CF000002A50D000221A73314B1D7070BD197BF1
:104D000011B91D732E4B1D702E4B9202B2FBF3F2A4
:104D1000264B053299688A423DD09A60284B012281
:104D20001A7070BD002626711F48E488FFF727FC23
:104D300000F00F008442184D03D12B8901332B81E1
:104D400006E01948FFF71BFC00F00F00E8802E81F9
:104D5000114C2389C82B18D1E388590702D500F0DC
:104D600053F801E000F056F8E38813F0010004D096
:104D70009A0701D4022000E0012000F025F8064B3C
:104D8000DB881B0701D400F025F8034B1A89C92AD8
:104D900001D9C9221A8170BDAC080020002401404D
:104DA000DC0D00200F27F8FF00080140280000203C
:104DB000EC0D0020E40D0020D40D0020703A0F000F
:104DC000D00D00203C055400014B1870704700BF07
:104DD000380000200A4B5A780A4B02B101221A739C
:104DE0001A7783F82C2083F83C2083F84C2083F832
:104DF0005C2083F86C2083F87C2083F88C2070473B
:104E000038000020B8080020014B01225A7070477A
:104E100038000020014B00225A70704738000020F3
:104E20002DE9F74FAC484FF48071FFF7ABFB012140
:104E3000AA48FFF7EAF9AA4BB3F89020013292B2E0
:104E4000B2F5A57FA3F890203FD193F892000022FD
:104E50001146A3F89020A34AA0B183F8921052788B
:104E600093F8931003EB011302B101221A739C4BC8
:104E700093F893200132D2B2092A83F8932017D1F4
:104E8000002213E093F8940090B183F894105278C4
:104E900093F8931003EB011302B101221A73904BA4
:104EA00093F893200AB1013A00E0082283F8932096
:104EB0008B4B8C4993F893204868896803EB021266
:104EC00050609160002283F89520854991F89330D5
:104ED0000E4601EB03125468906809220BE0092B7F
:104EE00008BF002300F5304006EB0311640000F515
:104EF000B9704C608860013A0133D2B27849DBB2B4
:104F0000002AECD1092B81F89330486808BF81F85A
:104F100093200A684C69821808694F6C04EB0009F9
:104F2000086A4C6A4E6D04EB0008086B4C6B4D6EC2
:104F300004EB000C086C4C6F3F18086DD1F884A08E
:104F40003618086E0A602D18086FC1F810902418E2
:104F5000D1F88000C1F820805044C1F830C00F64FF
:104F60000E650D660C67C1F880005E495C4B0978E0
:104F7000012940F0BB805C49920C31F912B093F8E2
:104F80000CA09A680BFB0AFBA2F53C2AAAF5C66A9C
:104F900040F24462BAFBF2FA03EB4A0A4FEA99493B
:104FA000CDF804B031F91990BAF896B093F81CA076
:104FB0004FEA984809FB0AF9D3F818A04FEA9C4C2D
:104FC000AAF53C2AAAF5C66ABAFBF2FA03EB4A0A2A
:104FD000BAF896A0BF0C0AFB09F9DDF804A0B60CDC
:104FE0000BFB0A9931F918B0D3F8288093F82CA05C
:104FF000A8F53C28A8F5C6680BFB0AFAB8FBF2F83E
:1050000003EB4808B8F896B093F83C800BFB0A9A7B
:1050100031F91CB0D3F838C00BFB08FBACF53C2CC5
:10502000ACF5C66CBCFBF2FC03EB4C0CBCF89690E8
:1050300093F84CC009FB0BAB31F917909F6C09FB3F
:105040000CF9A7F53C27A7F5C667B7FBF2F703EB0A
:105050004707B7F8967031F9166007FB09B993F85E
:105060005C70AD0C7E439F6D31F91550A7F53C2760
:10507000A7F5C667B7FBF2F703EB4707B7F89670DB
:10508000A40C07FB069693F86C7031F914407D432D
:105090009F6E800CA7F53C27A7F5C667B7FBF2F714
:1050A00003EB4707B7F8967031F9101007FB056559
:1050B00093F87C6074439E6FA6F53C26A6F5C66601
:1050C000B6FBF2F603EB4606B6F8966006FB045410
:1050D00093F88C5099E100BF00100140001000408F
:1050E000B808002038000020B86B0008002940F004
:1050F000C280D949920C01EB420293F80CA0B2F99C
:1051000038B99A680BFB0AFBA2F53C2AAAF5C66AD5
:1051100040F24462BAFBF2FA4FEA994903EB4A0AB9
:1051200001EB4909CDF804B0B9F93899BAF896B04D
:1051300093F81CA04FEA984809FB0AF9D3F818A085
:1051400001EB4808AAF53C2AAAF5C66ABAFBF2FAAE
:1051500003EB4A0ABAF896A04FEA9C4C0AFB09F9FD
:10516000DDF804A001EB4C0C0BFB0A99B8F938B937
:10517000D3F8288093F82CA0A8F53C28A8F5C66899
:105180000BFB0AFAB8FBF2F803EB4808B8F896B044
:1051900093F83C800BFB0A9ABCF938B9D3F838C0B5
:1051A0000BFB08FBACF53C2CACF5C66CBCFBF2FC75
:1051B00003EB4C0CBCF89690BF0C01EB470709FBC6
:1051C0000BABB7F938999F6C93F84CC0A7F53C2707
:1051D000A7F5C66709FB0CF9B7FBF2F703EB470726
:1051E000B7F89670B60C01EB460607FB09B9B6F99D
:1051F000386993F85C70AD0C7E439F6D01EB4505FB
:10520000A7F53C27A7F5C667B7FBF2F703EB4707FF
:10521000B7F89670B5F9385907FB069693F86C7095
:10522000A40C7D439F6E01EB4404A7F53C27A7F532
:10523000C667B7FBF2F703EB4707B7F89670B4F908
:10524000384907FB056593F87C60800C74439E6FBA
:1052500001EB4001A6F53C26A6F5C666B6FBF2F6C4
:1052600003EB4606B6F89660B1F9381906FB04540C
:1052700093F88C50C9E0022940F0D7807749C2F3F7
:105280008B4201EB420293F80CA0B2F978B19A6814
:105290000BFB0AFBA2F53C2AAAF5C66A40F244625F
:1052A000BAFBF2FAC9F38B4903EB4A0A01EB49094D
:1052B000CDF804B0B9F97891BAF896B093F81CA07B
:1052C000C8F38B4809FB0AF9D3F818A001EB48088A
:1052D000AAF53C2AAAF5C66ABAFBF2FA03EB4A0A17
:1052E000BAF896A0CCF38B4C0AFB09F9DDF804A0C0
:1052F00001EB4C0C0BFB0A99B8F978B1D3F8288074
:1053000093F82CA0A8F53C28A8F5C6680BFB0AFA70
:10531000B8FBF2F803EB4808B8F896B093F83C8075
:105320000BFB0A9ABCF978B1D3F838C00BFB08FB29
:10533000ACF53C2CACF5C66CBCFBF2FC03EB4C0CA6
:10534000BCF89690C7F38B4701EB470709FB0BAB03
:10535000B7F978919F6C93F84CC0A7F53C27A7F557
:10536000C66709FB0CF9B7FBF2F703EB4707B7F881
:105370009670C6F38B4601EB460607FB09B9B6F9F2
:10538000786193F85C70C5F38B457E439F6D01EBAC
:105390004505A7F53C27A7F5C667B7FBF2F703EB72
:1053A0004707B7F89670B5F9785107FB069693F85A
:1053B0006C70C4F38B447D439F6E01EB4404A7F5EE
:1053C0003C27A7F5C667B7FBF2F703EB4707B7F82B
:1053D0009670B4F9784107FB056593F87C60C0F3DB
:1053E0008B4074439E6F01EB4001A6F53C26A6F569
:1053F000C666B6FBF2F603EB4606B6F89660B1F960
:10540000781106FB045493F88C50D3F88800694354
:10541000A0F53C20A0F5C660B0FBF2F203EB42031E
:10542000B3F8963003FB014300E000230C4A0D481B
:10543000D26893FBF2F3132293FBF2F30A4A03F5CB
:1054400000619160C3F500634FF48071536103B054
:10545000BDE8F04FFFF798B880E20008406A010805
:1054600038000020001001400074004000000000DF
:10547000FF282DE9F843044616461F4626D8104655
:10548000194600F031FB32463B4600F0DFFC224E6D
:105490008046894600252B1B601B584300F070FC9A
:1054A00042464B4600F0FCFD00F006F918A3D3E994
:1054B000002300F0CBFC00F08BFF013526F8020F33
:1054C000FFF792F8B5F5807FE5D10AE01349002394
:1054D00040F6FF725A520233B3F5007FFAD100E072
:1054E0001C3C002CFCDC0D48002304F11C011A4676
:1054F00000EB4404E018008F1C313833FF290244CC
:10550000F8DD074BDA60BDE8F88300BFAFF3008039
:105510000000000000FEAF404C0900204E090020B2
:1055200038000020AFF300804BF27113034AC31818
:1055300093429CBF024BC3F898027047E26201009D
:10554000B808002010B51B4B93F89520002A2FD1E6
:105550001949D3F898028A68821818488A608242EA
:1055600007D802F5304202F5B9728A60012283F849
:1055700092208B68124A934209D90F4AA3F530430F
:10558000A3F5B97393600B4B012283F894200A4C66
:10559000A06800F0E5FB00220A4B00F057FC00F089
:1055A0008BF800F015FF034B0122606083F8952013
:1055B00010BD00BFB8080020380000202FC60B0027
:1055C000A1770C000000F03E10B53348334C88B092
:1055D000002340F6FF71195319520233B3F5007FCF
:1055E0002F4AF8D1134602F19000012119731033AC
:1055F0008342FBD12B4B4FF0005053602A4B0121CB
:105600009360FFF7CDF804200121FFF7BDF81020CB
:105610000121FFF7C5F80024302307A92348ADF87E
:105620001C308DF81F40FEF755FF6846FEF7C6FF99
:105630000423204669460093FEF7A8FF6946102020
:10564000FEF7A4FF04A8FEF7B7FD40F2D5231848E3
:1056500004A9ADF81430FEF765FD15482021FEF7CA
:10566000C9FD01210A461248FEF7BBFD2046012173
:10567000FEF7AAFF10200121FEF7A6FF0C4801212A
:10568000FEF7A3FD0B4BF02283F836234FF4800284
:105690005A6008B010BD00BF4E090020540B002016
:1056A000B80800203FFB010030C60B000008014095
:1056B0000010004000E100E02DE9D0438AB006462A
:1056C0000F4600F071F8364C804694F90030894658
:1056D000013335D03046394600F0F6F900282FD096
:1056E000304639462AA3D3E9002300F03FFE0028C4
:1056F0002BD13046394628A3D3E9002300F018FE09
:10570000F0B104230093274B94F900100193002378
:105710000022089300230229CDE90467CDE902673E
:10572000CDE906232ED0684600F0D6F9002829D00E
:10573000089B1BB100F06CFE089B0360DDE9068945
:10574000404649460AB0BDE8D08303230093154B79
:105750002178019300230893CDE90467CDE902671E
:1057600041B94FF6FF734FF06042C4F2EF73CDE9D9
:105770000623D8E700230022C7F6F0730229CDE9FB
:105780000623D0D100F044FE22230360D0E700BFFF
:10579000EF39FAFE422E864051302DD5104987C090
:1057A00048000020B88B01082DE9F04F0F4642F663
:1057B000416127F00043C4F28601FC0F8B4283B0A5
:1057C000064614D94FF6FF71C7F6EF718B4235D9F3
:1057D00027F07F4121F47003034340F00581002C42
:1057E00040F03D813046394603B0BDE8F08F42F6C7
:1057F0004262C3F6D672934200F2D9804FF6FF722E
:10580000C3F62F62934200F2EC8097A3D3E9002302
:10581000394600F069F900230022C3F6F07300F066
:10582000A5FD002850D00023304639460022C3F69B
:10583000F07300F059F906460F46D3E739468CA3BA
:10584000D3E9002300F092FD002840F0D5803046D7
:10585000394689A3D3E9002300F06AFD002840F00F
:10586000FE8087A3D3E900233046394600F0EEFAE4
:10587000934B03EBC404D4E9082300F035F900F09E
:105880007FFD804600F07CFA7FA3D3E90023044625
:105890000D4600F0DBFA02460B463046394600F072
:1058A00021F97BA3D3E90023CDE900012046294655
:1058B00000F0CCFA82468B46DDE9000152465B4699
:1058C00000F010F906460F4632463B463046394650
:1058D00000F0BCFA70A3D3E9002304460D4600F0A3
:1058E000B5FA6FA3D3E9002300F0FCF822462B465B
:1058F00000F0ACFA6CA3D3E9002300F0F5F82246DF
:105900002B4600F0A3FA6AA3D3E9002300F0EAF8DB
:1059100022462B4600F09AFA67A3D3E9002300F051
:10592000E3F822462B4600F091FA02460B46304639
:10593000394600F0D7F804460D46B8F1000F65D09F
:1059400002460B463046394600F080FA22460646AB
:105950000F462B4600204FF0804100F0C3F802466E
:105960000B463046394600F09BFB02460B4650463C
:10597000594600F0B7F8DDE9002300F0B3F80B4614
:1059800000210246C3F6F071002000F0ABF86FF47E
:105990007F7398455EDA08F57A7801EB08510022AA
:1059A0004FF0B87300F052FA06460F461AE74AF273
:1059B000B122C3F6F07293423FF653AF404D3946E1
:1059C00005EBC405D5E9002300F08CF8D5E904AB5C
:1059D000C4F10008C4EB0804CDE9000104F101089A
:1059E0006AE74FF000086FE739463B46024600F091
:1059F0007BF806460F46F5E61BA1D1E900010246F9
:105A00000B4600F023FA06460F46EBE630463946D1
:105A100022462B4600F01AFA0022804689464FF0B3
:105A200080432046294600F05DF802460B4640467A
:105A3000494600F035FB32463B4600F053F80B4632
:105A400000210246C3F6F071002000F04BF8064634
:105A50000F46C7E601EB085106460F46C2E6002690
:105A60000027BFE6AFF300809C7500883CE4377EDA
:105A7000EF39FAFE422E864051302DD5104987C0AD
:105A8000FE822B654715F73F0000E0FE422EE63F01
:105A9000763C7935EF39EA3DD0A4BE726937663E6F
:105AA000F16BD2C541BDBB3E2CDE25AF6A56113F1E
:105AB00093BDBE166CC1663F3E5555555555C53F05
:105AC000C08B0108AFF3008021F0004000F10040DE
:105AD00000F58010C00F70470020704781F0004132
:105AE00002E000BF83F0004330B54FEA41044FEAC3
:105AF000430594EA050F08BF90EA020F1FBF54EA5E
:105B0000000C55EA020C7FEA645C7FEA655C00F0F9
:105B1000E2804FEA5454D4EB5555B8BF6D420CDDCA
:105B20002C4480EA020281EA030382EA000083EA4D
:105B3000010180EA020281EA0303362D88BF30BDED
:105B400011F0004F4FEA01314FF4801C4CEA113143
:105B500002D0404261EB410113F0004F4FEA0333A2
:105B60004CEA133302D0524263EB430394EA050F2D
:105B700000F0A780A4F10104D5F1200E0DDB02FA9C
:105B80000EFC22FA05F2801841F1000103FA0EF230
:105B9000801843FA05F359410EE0A5F120050EF1F6
:105BA000200E012A03FA0EFC28BF4CF0020C43FA27
:105BB00005F3C01851EBE37101F0004507D54FF034
:105BC000000EDCF1000C7EEB00006EEB0101B1F584
:105BD000801F1BD3B1F5001F0CD349085FEA3000CA
:105BE0004FEA3C0C04F101044FEA445212F5800FD5
:105BF00080F09A80BCF1004F08BF5FEA500C50F172
:105C0000000041EB045141EA050130BD5FEA4C0C54
:105C1000404141EB010111F4801FA4F10104E9D1DD
:105C200091F0000F04BF01460020B1FA81F308BFD4
:105C30002033A3F10B03B3F120020CDA0C3208DDA0
:105C400002F1140CC2F10C0201FA0CF021FA02F17B
:105C50000CE002F11402D8BFC2F1200C01FA02F1EB
:105C600020FA0CFCDCBF41EA0C019040E41AA2BF10
:105C700001EB0451294330BD6FEA04041F3C1CDAD8
:105C80000C340EDC04F11404C4F1200220FA04F0F8
:105C900001FA02F340EA030021FA04F345EA0301A2
:105CA00030BDC4F10C04C4F1200220FA02F001FA64
:105CB00004F340EA0300294630BD21FA04F02946E6
:105CC00030BD94F0000F83F4801306BF81F480117F
:105CD0000134013D4EE77FEA645C18BF7FEA655CF2
:105CE00029D094EA050F08BF90EA020F05D054EAC4
:105CF000000C04BF1946104630BD91EA030F1EBFC9
:105D00000021002030BD5FEA545C05D140004941CC
:105D100028BF41F0004130BD14F580043CBF01F5BF
:105D2000801130BD01F0004545F0FE4141F47001A5
:105D30004FF0000030BD7FEA645C1ABF1946104680
:105D40007FEA655C1CBF0B46024650EA013406BF81
:105D500052EA033591EA030F41F4002130BD00BF40
:105D600090F0000F04BF0021704730B54FF48064FD
:105D700004F132044FF000054FF0000150E700BF7E
:105D800090F0000F04BF0021704730B54FF48064DD
:105D900004F1320410F0004548BF40424FF00001CA
:105DA0003EE700BF42004FEAE2014FEA31014FEA0D
:105DB00002701FBF12F07F4393F07F4F81F060515C
:105DC000704792F0000F14BF93F07F4F704730B5CB
:105DD0004FF4607401F0004521F0004120E700BF5E
:105DE00050EA010208BF704730B54FF000050AE0E5
:105DF00050EA010208BF704730B511F0004502D5E6
:105E0000404261EB41014FF4806404F132045FEAE7
:105E1000915C3FF4DCAE4FF003025FEADC0C18BF8C
:105E200003325FEADC0C18BF033202EBDC02C2F182
:105E3000200300FA03FC20FA02F001FA03FE40EA14
:105E40000E0021FA02F11444C1E600BF70B54FF014
:105E5000FF0C4CF4E06C1CEA11541DBF1CEA1355F6
:105E600094EA0C0F95EA0C0F00F0DEF82C4481EA5E
:105E7000030621EA4C5123EA4C5350EA013518BF7E
:105E800052EA033541F4801143F4801338D0A0FB6B
:105E900002CE4FF00005E1FB02E506F00042E0FB18
:105EA00003E54FF00006E1FB03569CF0000F18BF1E
:105EB0004EF0010EA4F1FF04B6F5007F64F54074C6
:105EC00004D25FEA4E0E6D4146EB060642EAC62159
:105ED00041EA55514FEAC52040EA5E504FEACE2EC6
:105EE000B4F1FD0C88BFBCF5E06F1ED8BEF1004FC9
:105EF00008BF5FEA500E50F1000041EB045170BD45
:105F000006F0004646EA010140EA020081EA030188
:105F1000B4EB5C04C2BFD4EB0C0541EA045170BD84
:105F200041F480114FF0000E013C00F3AB8014F1FE
:105F3000360FDEBF002001F0004170BDC4F1000447
:105F4000203C35DA0C341BDC04F11404C4F12005C8
:105F500000FA05F320FA04F001FA05F240EA020023
:105F600001F0004221F0004110EBD37021FA04F659
:105F700042EB06015EEA430E08BF20EAD37070BD13
:105F8000C4F10C04C4F1200500FA04F320FA05F072
:105F900001FA04F240EA020001F0004110EBD37074
:105FA00041F100015EEA430E08BF20EAD37070BDE4
:105FB000C4F1200500FA05F24EEA020E20FA04F3BD
:105FC00001FA05F243EA020321FA04F001F000416C
:105FD00021FA04F220EA020000EBD3705EEA430EDD
:105FE00008BF20EAD37070BD94F0000F0FD101F00C
:105FF0000046400041EB010111F4801F08BF013C45
:10600000F7D041EA060195F0000F18BF704703F082
:106010000046520043EB030313F4801F08BF013D09
:10602000F7D043EA0603704794EA0C0F0CEA1355C5
:1060300018BF95EA0C0F0CD050EA410618BF52EA7F
:106040004306D1D181EA030101F000414FF0000085
:1060500070BD50EA410606BF1046194652EA430693
:1060600019D094EA0C0F02D150EA013613D195EA07
:106070000C0F05D152EA03361CBF104619460AD14F
:1060800081EA030101F0004141F0FE4141F4700159
:106090004FF0000070BD41F0FE4141F4780170BD49
:1060A00070B54FF0FF0C4CF4E06C1CEA11541DBFAE
:1060B0001CEA135594EA0C0F95EA0C0F00F0A7F8B0
:1060C000A4EB050481EA030E52EA03354FEA0131DD
:1060D00000F088804FEA03334FF0805545EA1313F0
:1060E00043EA12634FEA022245EA111545EA1065B8
:1060F0004FEA00260EF000419D4208BF964244F14F
:10610000FD0404F5407402D25B084FEA3202B61A6D
:1061100065EB03055B084FEA32024FF480104FF441
:10612000002CB6EB020E75EB030E22BFB61A7546B5
:1061300040EA0C005B084FEA3202B6EB020E75EB48
:10614000030E22BFB61A754640EA5C005B084FEAB0
:106150003202B6EB020E75EB030E22BFB61A75467D
:1061600040EA9C005B084FEA3202B6EB020E75EB88
:10617000030E22BFB61A754640EADC0055EA060E49
:1061800018D04FEA051545EA16754FEA06164FEA8C
:10619000C30343EA52734FEAC2025FEA1C1CC0D138
:1061A00011F4801F0BD141EA00014FF000004FF0C5
:1061B000004CB6E711F4801F04BF01430020B4F186
:1061C000FD0C88BFBCF5E06F3FF6AFAEB5EB030C3E
:1061D00004BFB6EB020C5FEA500C50F1000041EB3B
:1061E000045170BD0EF0004E4EEA113114EB5C0408
:1061F000C2BFD4EB0C0541EA045170BD41F48011DB
:106200004FF0000E013C90E645EA060E8DE60CEAE2
:10621000135594EA0C0F08BF95EA0C0F3FF43BAFFF
:1062200094EA0C0F0AD150EA01347FF434AF95EAB6
:106230000C0F7FF425AF104619462CE795EA0C0F9A
:1062400006D152EA03353FF4FDAE1046194622E767
:1062500050EA410618BF52EA43067FF4C5AE50EA41
:1062600041047FF40DAF52EA43057FF4EBAE12E731
:106270004FF0FF3C06E000BF4FF0010C02E000BF12
:106280004FF0010C4DF804CD4FEA410C7FEA6C5CF5
:106290004FEA430C18BF7FEA6C5C1BD001B050EA98
:1062A000410C0CBF52EA430C91EA030F02BF90EA83
:1062B000020F0020704710F1000F91EA030F58BF42
:1062C000994208BF90422CBFD8176FEAE37040F0A4
:1062D000010070474FEA410C7FEA6C5C02D150EA42
:1062E000013C07D14FEA430C7FEA6C5CD6D152EAFD
:1062F000033CD3D05DF8040B704700BF84461046C2
:1063000062468C461946634600E000BF01B5FFF7C0
:10631000B7FF002848BF10F1000F01BD4DF808ED90
:10632000FFF7F4FF0CBF012000205DF808FB00BF61
:106330004DF808EDFFF7EAFF34BF012000205DF8BB
:1063400008FB00BF4DF808EDFFF7E0FF94BF012008
:1063500000205DF808FB00BF4DF808EDFFF7CEFF09
:1063600094BF012000205DF808FB00BF4DF808ED48
:10637000FFF7C4FF34BF012000205DF808FB00BF19
:106380004FEA410212F5001215D211D56FF478735D
:10639000B3EB625212D94FEAC12343F0004343EA00
:1063A000505311F0004F23FA02F018BF40427047DB
:1063B0004FF00000704750EA013005D111F0004065
:1063C00008BF6FF0004070474FF00000704700BFFB
:1063D0004A0011D212F5001211D20DD56FF4787364
:1063E000B3EB62520ED44FEAC12343F0004343EAB9
:1063F000505323FA02F070474FF00000704750EA04
:10640000013002D14FF0FF3070474FF0000070476D
:1064100040F25003C2F200031868704740F2500384
:10642000C2F200031B680146184600F00BB800BF1B
:1064300040F25003C2F200031B680146184600F008
:10644000F5BA00BF2DE9F84F01F10B04162C0546F3
:1064500026D934F0070426D4A14224D8284600F0D7
:106460007FFAB4F5FC7F24D2B24E4FEAD40E06EB8D
:10647000CE03DF689F4200F0D2817B68FA6823F088
:106480000303FB185868B96840F001005860CA60FF
:106490009160284600F066FA08373846BDE8F88F64
:1064A0001024A142DAD90C2300272B603846BDE81E
:1064B000F88F5FEA542E00F08780BEF1040F00F2DF
:1064C0004C814FEA941E0EF1380E4FEACE01994EE0
:1064D0007118CF68B94205D10CE0002B79DAFF685A
:1064E000B94207D07A6822F00302131B0F2BF4DDA8
:1064F0000EF1FF3E0EF1010E8E4A376902F1080CD3
:10650000674500F06A817B6823F00303191B0F299C
:1065100000F350810029C2F814C0C2F810C068DA34
:10652000B3F5007F80F02781DB0899104FF0010858
:1065300008FA01F802EBC3035168986848EA0101C0
:10654000FB60B86051609F60C76001204FEAAE03F6
:106550009840884259D8014206D12EF0030E4000DF
:1065600001420EF1040EFAD006EBCE094F46F0467A
:10657000FB689F4207D132E1002A80F25981DB6833
:106580009F4200F02C81596821F003010A1B0F2A59
:10659000F2DD1F46D86857F808EF191942F00108D4
:1065A00044F00104CEF80C00C0F808E05C607161B2
:1065B0003161C1F80CC0C1F808C0C1F804808A502C
:1065C000284600F0CFF968E74FEAD40E4FEACE0133
:1065D0007DE7BA185068FB68B96840F00100506068
:1065E000CB6028469960083700F0BCF93846BDE812
:1065F000F88FFB185A68284642F001025A600837A3
:1066000000F0B0F93846BDE8F88FB7687B6823F032
:1066100003094C4504D8C4EB09020F2A00F38E800D
:10662000DFF814A1D6F80824DAF800300132234448
:1066300000F0478103F580530F3323F47E6323F08A
:106640001F0B2846594600F08FF9B0F1FF3F8046F6
:1066500000F0408107EB0902824200F20181DAF882
:10666000043042455B44CAF8043000F03881D6F863
:106670000814013100F04481C2EB08029B18CAF8EB
:10668000043018F0070300F0FE80C3F10802C3F5E0
:106690008053904403F1080208EB0B031B051B0D0C
:1066A000C3EB020B2846594600F05EF9431C00F08C
:1066B0003381C8EB00025A4442F00102DAF8043098
:1066C000B7425B44C6F80880CAF80430C8F8042012
:1066D00015D0B9F10F0F40F2E3807968A9F10C02EF
:1066E00022F0070201F0010E0520B91842EA0E0E51
:1066F0000F2AC7F804E04860886000F20581DAF8E4
:106700002C20B768934284BF0B4AD362DAF830205A
:10671000934284BF084A13637A6822F003029442CA
:1067200002D8121B0F2A09DC284600F01BF90027AB
:10673000B3E600BF80040020540D00203B1942F056
:10674000010244F001047C6028465A600837B360B7
:1067500000F008F93846BDE8F88FBEF1140F76D97D
:10676000BEF1540F00F285804FEA143E0EF16E0E1A
:106770004FEACE01ABE65A0A042A6DD9142A00F278
:10678000A38002F15B01C80030188268DFF8C8817D
:10679000824203D17AE09268904204D0516821F09D
:1067A00003018B42F7D3D3687168FB60BA60D7608E
:1067B0009F60CAE63B1941F0010044F001047C608F
:1067C000536113615860C3F80CC0C3F808C0595036
:1067D000284600F0C7F808375FE65168B5E608F1CB
:1067E0000108083718F0030F7FF4C2AE4B461EF0C5
:1067F000030FA3F108020EF1FF3E00F0A0801B681A
:106800009342F4D07368400098423FF6FEAE0028F1
:106810003FF4FBAE184200F09780C646A4E607F1AD
:1068200008037F69BB427FF428AE0EF1020E63E6D7
:10683000591848681F4657F8082FDB6840F00100D8
:106840004860D3609A60284600F08CF825E60EF187
:106850005B0E4FEACE013AE699093831C80093E75A
:10686000B7423FF4FCAE3C4B9F687A6822F00302CB
:1068700055E7BEF5AA7F19D84FEAD43E0EF1770E40
:106880004FEACE0123E64FF4805205E7891001203C
:106890008840D8F8041013460143C8F8041084E770
:1068A0000123C8F804304746002238E740F2545329
:1068B0009E4520D84FEA944E0EF17C0E4FEACE0151
:1068C00005E603F1100BBCE6542A29D8190B6E31EA
:1068D000C80059E7B7687A6822F003021FE711057C
:1068E000090D00297FF4C3AEB2680BEB090141F03A
:1068F0000101516003E74FF47C714FF07E0EE6E535
:10690000154BC3F80884BCE607F10801284600F0DF
:106910008DF8124B5B68F2E601224FF0000BCDE6DA
:10692000B2F5AA7F03D8D90B7731C8002CE740F223
:1069300054518A420CD8990C7C31C80024E7736802
:1069400023EA000373605EE7400008F1040861E792
:106950004FF47C707E2117E780040020540D002046
:10696000704700BF704700BF38B5074C002305468D
:1069700008462360FEF780F8431C00D038BD23682A
:10698000002BFBD02B6038BDF00D0020F8B5244D56
:1069900004460F46FFF7E4FFAB6820465E6826F02A
:1069A000030606F57E630F33DF1B3F0B013F3F03FA
:1069B000B7F5805F1CDB0021FFF7D6FFAB689B19A2
:1069C000984219D02046FFF7CDFF0020F8BD0021E6
:1069D0002046FFF7C9FFAB68C21A0F2A07DD11492D
:1069E00042F0010209685A60401A0F4908602046C7
:1069F000FFF7B8FF0020F8BD79422046FFF7B4FF4B
:106A00000130E4D0084BAA681968F61B46F001066D
:106A1000CF1B204656601F60FFF7A4FF0120F8BD82
:106A20008004002088080020580D00202DE9F04146
:106A30000D460446002958D0FFF792FF55F8040C84
:106A4000594EA5F1080120F00103CA18D6F808C074
:106A50005768944527F0030764D010F00100576091
:106A600032D00020D5196D6815F0010F06D1DB1961
:106A7000956800284AD0D268EA60956043F0010228
:106A80004A60CB50D8B9B3F5007F30D35A0A042AF4
:106A900063D89D093835E8008619B2684248B24289
:106AA00003D160E09268964204D0506820F0030061
:106AB0008342F7D3D368CB608A60D1609960204667
:106AC000BDE8F041FFF74EBF55F808CC06F10808C5
:106AD000CCEB01018D68634445453CD0D1F80CC036
:106AE000C5F80CC0CCF80850BCE7BDE8F081DB0865
:106AF0009A100120904006EBC30375689A682843FA
:106B0000CB608A6070609960D160D8E7274FBD4242
:106B1000B1D143F0010271613161CD608D604A6095
:106B2000CB50CCE7C2073B4407D455F8085C491B5F
:106B3000CA6888685B19C26090601D4A43F0010012
:106B4000126848609342B160B9D31A4B2046196865
:106B5000FFF71CFFB3E7012084E7142A0BD802F1EA
:106B60005B05E80098E7AD100126AE404568134686
:106B7000354345609FE7542A03D81D0B6E35E80066
:106B80008AE7B2F5AA7F03D8DD0B7735E80083E703
:106B900040F25450824203D89D0C7C35E8007BE7DC
:106BA0004FF47C707E2577E7800400208804002065
:106BB0008C080020540D0020000035016B02A10359
:106BC000D7040D0642077708AD09E10A160C4A0DF5
:106BD0007E0EB20FE51018124A137C14AD15DE16A6
:106BE0000F183E196D1A9C1BC91CF61D221F4E2042
:106BF0007921A222CB23F3241B26412766288A2948
:106C0000AE2AD02BF12C112E2F2F4D306A31853228
:106C10009F33B734CF35E536FA370D391F3A2F3B5E
:106C20003E3C4C3D583E623F6B40724178427C4353
:106C30007E447F457E467B4777487049684A5E4B75
:106C4000534C454D354E244F1050FB50E351CA5222
:106C5000AE53915471554F562B570558DD58B359C3
:106C6000865A575B265CF35CBE5D865E4C5F0F60A8
:106C7000D0608F614B620563BD6372642565D56525
:106C800083662E67D6677D682069C169606AFC6A81
:106C9000956B2C6CC06C516DE06D6C6EF56E7C6FFD
:106CA0000070817000717B71F4716B72DE724F73D2
:106CB000BD7328749174F6745975B975167670762B
:106CC000C7761C776E77BC77087851789878DB7830
:106CD0001B7959799379CB79007A327A607A8D7AF7
:106CE000B67ADC7AFF7A1F7B3D7B577B6F7B837B99
:106CF000957BA47BB07BB97BBF7BC27BC27BBF7B18
:106D0000BA7BB17BA67B977B867B727B5B7B417B6F
:106D1000247B057BE27ABD7A947A697A3B7A0A7A97
:106D2000D779A07967792B79EC78AA7866781F787B
:106D3000D57788773977E77692763A76E0758375F6
:106D40002375C1745C74F4738A731D73AE723C72E4
:106D5000C7715071D6705A70DB6F5A6FD66E506E15
:106D6000C86D3C6DAF6C1F6C8D6BF86A616AC86949
:106D70002C698E68EE674C67A76600665765AB6442
:106D8000FE634E639C62E96133617B60C05F045FB8
:106D9000465E865DC45C005C3A5B725AA859DD5859
:106DA0000F5840576F569C55C854F2531A534052CF
:106DB00065518850AA4FCA4EE84D054D204C3A4BBC
:106DC000524A69497F489347A646B745C844D743C6
:106DD000E442F141FC4006400F3F173E1D3D233C7D
:106DE000273B2B3A2D392F3830372F362E352C3480
:106DF0002933253221311B30152F0F2E072DFF2B64
:106E0000F72AED29E428D927CE26C325B724AB23BA
:106E10009E2291218420761F681E591D4B1C3C1B0D
:106E20002D1A1E190F18FF16F015E014D113C112F8
:106E3000B211A210930F830E740D650C560B480A05
:106E400039092B081D0710060205F503E902DD01CB
:106E5000D100C6FFBBFEB1FDA8FC9FFB96FA8EF9E0
:106E600087F881F77BF676F572F46EF36BF269F1D1
:106E700068F068EF68EE6AED6CEC70EB74EA7AE942
:106E800080E887E790E69AE5A4E4B0E3BDE2CBE1D1
:106E9000DBE0EBDFFDDE10DE25DD3BDC52DB6ADA1A
:106EA00084D99FD8BCD7DAD6F9D51AD53CD460D3CB
:106EB00086D2ADD1D5D0FFCF2BCF58CE87CDB8CC91
:106EC000EACB1ECB53CA8BC9C4C8FFC73BC77AC61F
:106ED000BAC5FCC43FC485C3CCC216C261C1AEC032
:106EE000FDBF4EBFA1BEF6BD4CBDA5BC00BC5DBB89
:106EF000BBBA1CBA7FB9E3B84AB8B3B71EB78BB6F2
:106F0000FAB56CB5DFB454B4CCB346B3C2B240B238
:106F1000C0B142B1C7B04DB0D6AF61AFEFAE7EAE3B
:106F200010AEA4AD3AADD2AC6DAC0AACA9AB4AABD5
:106F3000EEAA93AA3BAAE6A992A941A9F2A8A6A8FB
:106F40005BA813A8CDA78AA749A70AA7CDA692A692
:106F50005AA624A6F1A5BFA590A563A539A511A59C
:106F6000EBA4C7A4A5A486A469A44EA436A420A417
:106F70000BA4FAA3EAA3DDA3D2A3C9A3C2A3BDA312
:106F8000BBA3BBA3BDA3C1A3C8A3D0A3DBA3E8A39A
:106F9000F7A308A41BA431A448A462A47DA49BA4C5
:106FA000BBA4DDA401A527A54FA579A5A5A5D3A5BB
:106FB00003A635A669A69FA6D7A611A74CA78AA7A0
:106FC000CAA70BA84EA893A8DAA823A96EA9BAA9A4
:106FD00009AA59AAAAAAFEAA53ABAAAB03AC5DACF4
:106FE000BAAC17AD77ADD8AD3AAE9FAE04AF6CAFCB
:106FF000D5AF3FB0ABB019B188B1F8B16AB2DDB26C
:1070000052B3C8B340B4B9B433B5AFB52CB6AAB611
:107010002AB7AAB72CB8B0B834B9BAB941BAC9BA04
:1070200052BBDCBB68BCF4BC82BD10BEA0BE30BF8E
:10703000C2BF55C0E8C07DC112C2A8C23FC3D7C3FA
:1070400070C40AC5A5C540C6DCC679C716C8B4C891
:1070500053C9F3C993CA34CBD5CB77CC1ACDBDCDA8
:1070600061CE05CFAACF4FD0F5D09BD141D2E8D287
:107070008FD337D4DFD487D530D6D9D682D72BD883
:10708000D5D87FD929DAD3DA7DDB28DCD2DC7DDDE7
:1070900028DED3DE7DDF28E0D3E07EE129E2D4E202
:1070A0007FE329E4D4E47EE529E6D3E67DE727E81B
:1070B000D0E879E923EACBEA74EB1CECC4EC6CED84
:1070C00013EEBAEE61EF07F0ADF052F1F7F19CF27A
:1070D00040F3E3F386F429F5CBF56CF60DF7AEF744
:1070E0004DF8EDF88BF929FAC6FA63FBFFFB9AFC21
:1070F00035FDCEFD67FE00FF97FF2E00C4005A014C
:10710000EE0182021503A7033804C8045805E605FA
:10711000740601078C071708A1082A09B2093A0A60
:10712000C00A450BC90B4C0CCE0C500DD00D4F0EA8
:10713000CD0E4A0FC60F4010BA103311AA112112FA
:1071400096120A137E13F0136014D0143F15AC1579
:1071500018168416ED165617BE1724188918ED1840
:107160005019B219121A711ACF1A2C1B881BE21B64
:107170003B1C931CEA1C3F1D941DE61D381E891EF6
:10718000D81E261F731FBE1F092052209920E02001
:1071900025216921AC21EE212E226D22AB22E7228E
:1071A00023235D239623CD23042439246D24A02496
:1071B000D124012530255E258B25B625E02509261D
:1071C000312658267D26A126C426E626072726270F
:1071D000452762277E279927B227CB27E227F92761
:1071E0000E282228352847285728672875288328FD
:1071F0008F289B28A528AE28B628BD28C428C928D2
:10720000CD28D028D228D328D328D228D028CD28BA
:10721000C928C528BF28B928B128A9289F2895289A
:107220008A287E287128642855284628352824284D
:1072300013280028ED27D927C427AE2797278027B2
:107240006827502736271C270227E626CA26AD26A0
:1072500090267226532634261426F425D325B125EC
:107260008F256C25492525250125DC24B72491246B
:107270006B2444241D24F523CD23A4237C235223F3
:107280002823FE22D422A9227E2252222622FA215B
:10729000CE21A121742147211921EB20BD208F206F
:1072A000602031200220D31FA41F741F441F151F0C
:1072B000E41EB41E841E541E231EF31DC21D911D08
:1072C000601D301DFF1CCE1C9D1C6C1C3B1C0A1C31
:1072D000D91BA81B771B461B151BE41AB41A831A6B
:1072E000521A221AF119C11991196119311901198A
:1072F000D118A218721843181418E517B717881771
:107300005A172C17FE16D116A316761649161D16F7
:10731000F015C41598156D1541151615EC14C1140A
:1073200097146D1444141A14F213C913A11379138A
:1073300052132A130413DD12B71291126C12471262
:107340002212FE11DA11B711931171114E112D1184
:107350000B11EA10C910A910891069104A102C10DD
:107360000E10F00FD20FB50F990F7D0F610F460F62
:107370002B0F100FF60EDD0EC40EAB0E930E7B0E10
:10738000630E4C0E360E200E0A0EF50DE00DCC0DE0
:10739000B80DA40D910D7E0D6C0D5A0D480D370DD5
:1073A000270D170D070DF70CE80CDA0CCB0CBE0CF3
:1073B000B00CA30C970C8A0C7E0C730C680C5D0C43
:1073C000530C490C3F0C360C2D0C240C1C0C140CCB
:1073D0000D0C060CFF0BF80BF20BEC0BE60BE10BA4
:1073E000DC0BD70BD30BCF0BCB0BC70BC40BC10BD9
:1073F000BE0BBC0BB90BB70BB60BB40BB30BB20B7C
:10740000B10BB00BB00BAF0BAF0BAF0BAF0BB00BA7
:10741000B00BB10BB20BB30BB40BB60BB70BB90B74
:10742000BA0BBC0BBE0BC00BC20BC40BC60BC80BFC
:10743000CA0BCD0BCF0BD20BD40BD60BD90BDB0B5E
:10744000DE0BE00BE30BE50BE70BEA0BEC0BEE0BB3
:10745000F00BF20BF50BF60BF80BFA0BFC0BFD0B1C
:10746000FF0B000C010C020C030C040C040C040CAC
:10747000050C050C040C040C030C030C020C000C92
:10748000FF0BFD0BFB0BF90BF60BF30BF00BED0BEE
:10749000E90BE50BE10BDD0BD80BD30BCD0BC70BC9
:1074A000C10BBA0BB40BAC0BA50B9D0B940B8B0B48
:1074B000820B790B6F0B640B5A0B4E0B430B370B84
:1074C0002A0B1D0B100B020BF40AE50AD60AC60A9A
:1074D000B60AA50A940A830A710A5E0A4B0A370A99
:1074E000230A0F0AF909E409CE09B709A009880996
:1074F0006F0957093D0923090909EE08D208B608A2
:1075000099087C085E083F0820080108E107C007C9
:107510009F077D075A0737071407EF06CB06A50616
:107520007F06590632060A06E105B9058F0565058D
:107530003A050F05E304B7048A045C042E04FF0334
:10754000D003A0036F033E030C03DA02A702740208
:1075500040020C02D601A1016B013401FC00C50000
:107560008C0053001A00DFFFA5FF6AFF2EFFF2FE1A
:10757000B5FE78FE3AFEFCFDBDFD7EFD3EFDFEFC47
:10758000BDFC7CFC3AFCF8FBB6FB72FB2FFBEBFA74
:10759000A6FA62FA1CFAD7F990F94AF903F9BBF88E
:1075A00074F82CF8E3F79AF751F707F7BDF673F67E
:1075B00028F6DDF592F546F5FAF4AEF461F414F42C
:1075C000C7F37AF32CF3DEF290F242F2F3F1A4F176
:1075D00055F106F1B7F067F017F0C7EF77EF27EF37
:1075E000D6EE86EE35EEE4ED93ED42EDF1ECA0EC57
:1075F0004FECFEEBACEB5BEB0AEBB8EA67EA16EAA2
:10760000C4E973E922E9D0E87FE82EE8DDE78CE7FA
:107610003BE7EBE69AE649E6F9E5A9E559E509E530
:10762000B9E46AE41BE4CCE37DE32EE3E0E292E21A
:1076300044E2F6E1A9E15CE110E1C3E078E02CE08E
:10764000E1DF96DF4BDF01DFB8DE6EDE25DEDDDD5C
:1076500095DD4EDD06DDC0DC7ADC34DCEFDBABDB58
:1076600067DB23DBE0DA9EDA5CDA1BDADAD99AD957
:107670005BD91CD9DED8A1D864D828D8ECD7B1D72B
:1076800077D73ED705D7CDD696D660D62AD6F5D5AC
:10769000C1D58DD55BD529D5F8D4C8D499D46AD4B1
:1076A0003DD410D4E4D3B9D38FD365D33DD316D30F
:1076B000EFD2CAD2A5D281D25ED23DD21CD2FCD1A9
:1076C000DDD1BFD1A2D186D16BD152D139D121D157
:1076D0000AD1F4D0E0D0CCD0B9D0A8D097D088D0FF
:1076E0007AD06DD061D056D04CD043D03BD035D07D
:1076F0002FD02BD028D026D025D026D027D02AD0C6
:107700002DD032D039D040D048D052D05DD069D0C1
:1077100076D084D094D0A5D0B7D0CAD0DED0F4D063
:107720000AD122D13CD156D172D18ED1ACD1CBD19C
:10773000ECD10DD230D254D27AD2A0D2C8D2F0D26B
:107740001BD346D372D3A0D3CFD3FFD330D463D4CB
:1077500096D4CBD401D538D571D5AAD5E5D521D6C7
:107760005ED69CD6DBD61CD75ED7A1D7E5D72AD864
:1077700070D8B7D800D94AD994D9E0D92DDA7BDAB4
:10778000CBDA1BDB6CDBBFDB12DC67DCBCDC13DDC4
:107790006BDDC3DD1DDE78DED4DE31DF8EDFEDDFB5
:1077A0004DE0AEE00FE172E1D6E13AE2A0E206E39D
:1077B0006EE3D6E33FE4A9E414E580E5ECE55AE6A0
:1077C000C8E637E7A7E718E889E8FCE86FE9E2E9E7
:1077D00057EACCEA42EBB9EB31ECA9EC22ED9BED98
:1077E00015EE90EE0CEF88EF04F082F0FFF07EF1E2
:1077F000FDF17CF2FCF27DF3FEF380F402F584F5FA
:1078000007F68AF60EF792F717F89CF821F9A7F910
:107810002DFAB4FA3AFBC1FB49FCD0FC58FDE0FD5F
:1078200069FEF1FE7AFF03008C0015019E0128021B
:10783000B1023B03C5034F04D9046205EC0576068B
:1078400000078A0714089E082809B1093B0AC40AE0
:107850004E0BD70B600CE90C710DFA0D820E0A0F5E
:10786000920F1910A0102711AE113412BA123F1343
:10787000C4134914CE145115D5155816DB165D17CF
:10788000DE175F18E0186019E0195E1ADD1A5B1B3D
:10789000D81B541CD01C4B1DC61D401EB91E311FC9
:1078A000A91F202096200C218121F4216822DA22B0
:1078B0004B23BC232C249A2408257625E2254D262B
:1078C000B72621278927F0275728BC282129842972
:1078D000E629482AA82A072B652BC22B1E2C792CB7
:1078E000D32C2B2D832DD92D2E2E822ED52E262F27
:1078F000762FC62F13306030AB30F5303E318631F5
:10790000CC31113255329732D83218335733943341
:10791000CF330A3443347B34B134E63419354B3534
:107920007C35AC35D935063631365B368336AA36EA
:10793000CF36F33615373637563774379037AB377F
:10794000C537DD37F43709381D382F383F384F3801
:107950005C38683873387C3884388A388F38923885
:107960009338933892388F388B3885387D3874380F
:107970006A385E385038413831381F380B38F6379E
:10798000E037C837AE379337773759373937183735
:10799000F636D236AD3686365E3634360936DC35C6
:1079A000AE357F354E351B35E834B2347C34443443
:1079B0000A34D033943356331733D7329532533297
:1079C0000E32C93182313A31F030A53059300C30A5
:1079D000BD2F6D2F1C2FCA2E762E222ECC2D742D4E
:1079E0001C2DC22C682C0C2CAF2B502BF12A912A69
:1079F0002F2ACD29692904299E283828D0276727CE
:107A0000FD2692262626B9254C25DD246D24FD234E
:107A10008B231923A6223222BD214721D0205920B1
:107A2000E11F681FEE1E741EF91D7D1D001D831CC5
:107A3000051C871B071B871A071A86190419821849
:107A4000FF177C17F8167416EF156A15E4145E1408
:107A5000D8135113CA124212BA113111A9102010B1
:107A6000960F0D0F830EF90D6F0DE40C5A0CCF0B12
:107A7000440BB90A2D0AA20917098B0800087407DC
:107A8000E8065D06D1054605BA042F04A3031803D2
:107A90008D0202027701EC006200D7FF4DFFC3FEAA
:107AA0003AFEB0FD27FD9FFC16FC8EFB06FB7FFA1D
:107AB000F8F971F9EBF865F8E0F75BF7D6F652F6EE
:107AC000CFF54CF5CAF448F4C7F346F3C6F247F2D3
:107AD000C8F14AF1CCF050F0D4EF58EFDEEE64EE8E
:107AE000EBED72EDFBEC84EC0EEC99EB24EBB1EAE0
:107AF0003EEACDE95CE9ECE87DE80FE8A2E735E78E
:107B0000CAE660E6F7E58FE527E5C1E45CE4F8E363
:107B100095E333E3D3E273E214E2B7E15BE1FFE024
:107B2000A5E04DE0F5DF9EDF49DFF5DEA2DE51DEA8
:107B300000DEB1DD63DD17DDCBDC81DC39DCF1DBC0
:107B4000ABDB66DB23DBE1DAA0DA60DA22DAE5D947
:107B5000AAD970D937D900D9CAD896D862D831D81D
:107B600000D8D2D7A4D778D74DD724D7FDD6D6D62C
:107B7000B2D68ED66CD64CD62DD60FD6F3D5D8D558
:107B8000BFD5A8D591D57DD569D558D547D538D598
:107B90002BD51FD515D50CD504D5FED4FAD4F7D4E2
:107BA000F5D4F5D4F7D4FAD4FED404D50BD514D536
:107BB0001ED52AD537D545D556D567D57AD58ED594
:107BC000A4D5BBD5D4D5EED509D626D645D664D610
:107BD00085D6A8D6CCD6F1D618D740D769D794D7B2
:107BE000C0D7EDD71CD84CD87DD8B0D8E4D819D997
:107BF0004FD987D9C0D9FAD936DA73DAB1DAF0DADF
:107C000030DB72DBB5DBF9DB3EDC84DCCCDC14DDA5
:107C10005EDDA9DDF5DD42DE90DEDFDE2FDF81DF18
:107C2000D3DF26E07BE0D0E026E17DE1D6E12FE264
:107C300089E2E4E240E39DE3FAE359E4B8E418E5BD
:107C400079E5DBE53EE6A1E605E76AE7D0E736E859
:107C50009DE805E96DE9D6E940EAAAEA15EB81EB72
:107C6000EDEB59ECC7EC34EDA2ED11EE80EEF0EE49
:107C700060EFD1EF42F0B3F025F197F109F27CF219
:107C8000EFF263F3D7F34BF4BFF433F5A8F51DF629
:107C900092F607F77CF7F2F767F8DDF853F9C9F9C0
:107CA0003FFAB4FA2AFBA0FB16FC8CFC02FD77FD20
:107CB000EDFD63FED8FE4DFFC2FF3700AC00200192
:107CC000950109027C02F0026303D6034804BA045A
:107CD0002C059E050F067F06EF065F07CE073D08C1
:107CE000AC0819098709F3095F0ACB0A360BA00B08
:107CF0000A0C730CDC0C430DAA0D110E760EDB0E74
:107D0000400FA30F06106810C91029118811E71140
:107D10004412A112FD125813B2130B146414BB14B5
:107D200011156715BB150E166016B21602175117FE
:107D30009F17EC1738188318CC1815195C19A3195C
:107D4000E8192C1A6E1AB01AF01A2F1B6D1BAA1BF9
:107D5000E51B1F1C581C901CC61CFB1C2F1D621D04
:107D6000931DC31DF11D1E1E4A1E751E9E1EC51E9F
:107D7000EC1E111F341F571F781F971FB51FD21FEE
:107D8000ED1F07201F2036204B205F20722083200C
:107D90009320A120AE20B920C320CB20D220D82010
:107DA000DC20DE20DF20DF20DD20D920D420CE2003
:107DB000C620BD20B220A6209820892078206620E9
:107DC00052203D2026200E20F51FDA1FBD1F9F1FC9
:107DD000801F5F1F3D1F191FF41ECD1EA51E7C1E98
:107DE000511E241EF71DC71D971D651D321DFD1C4C
:107DF000C71C8F1C561C1C1CE11BA41B661B261BCE
:107E0000E51AA31A5F1A1B1AD4198D194419FB1805
:107E1000AF1863181518C61776172517D3167F16CF
:107E20002A16D4157D152515CC1471141514B91303
:107E30005B13FC129C123B12DA1177111311AE1076
:107E40004810E10F790F100FA70E3C0ED10D640DF5
:107E5000F70C890C1A0CAB0B3A0BC90A570AE40948
:107E60007109FC08870812089C072507AD0635062E
:107E7000BC054205C8044E04D3035703DB025E026F
:107E8000E1016401E6006700E8FF69FFEAFE6AFEBF
:107E9000EAFD69FDE8FC67FCE6FB64FBE2FA60FAD8
:107EA000DEF95BF9D9F856F8D4F751F7CEF64BF670
:107EB000C8F545F5C2F43FF4BCF339F3B6F233F23A
:107EC000B0F12EF1ACF029F0A7EF26EFA4EE23EEEF
:107ED000A2ED21EDA1EC21ECA1EB21EBA2EA24EA39
:107EE000A6E928E9ABE82EE8B2E736E7BAE640E6CD
:107EF000C6E54CE5D3E45BE4E3E36CE3F6E280E261
:107F00000BE297E124E1B1E03FE0CEDF5EDFEEDEA1
:107F100080DE12DEA5DD39DDCEDC64DCFBDB93DB4D
:107F20002CDBC6DA61DAFDD99AD938D9D8D878D815
:107F300019D8BCD760D705D7ABD652D6FBD5A5D5B7
:107F400050D5FCD4A9D458D408D4BAD36DD321D3F6
:107F5000D6D28DD245D2FFD1BAD177D134D1F4D097
:107F6000B5D077D03BD000D0C7CF8FCF59CF24CF5B
:107F7000F1CEC0CE90CE61CE35CE09CEE0CDB8CD1B
:107F800092CD6DCD4ACD29CD09CDEBCCCFCCB4CCA3
:107F90009BCC84CC6ECC5ACC48CC38CC29CC1CCCD5
:107FA00011CC08CC00CCFACBF6CBF4CBF3CBF5CB91
:107FB000F8CBFDCB03CC0CCC16CC22CC30CC3FCCB8
:107FC00051CC64CC79CC90CCA9CCC4CCE0CCFECC48
:107FD0001ECD40CD64CD89CDB1CDDACD05CE32CE2A
:107FE00060CE91CEC3CEF7CE2DCF65CF9ECFDACF68
:107FF00017D056D096D0D9D01DD163D1ABD1F5D101
:1080000040D28DD2DCD22DD37FD3D3D329D480D408
:10801000DAD435D591D5F0D550D6B2D615D77AD792
:10802000E1D749D8B3D81FD98CD9FBD96BDADDDABF
:1080300051DBC6DB3CDCB5DC2EDDAADD26DEA5DEB1
:1080400024DFA6DF28E0ACE032E1B9E141E2CBE297
:1080500056E3E2E370E4FFE490E521E6B5E649E7A4
:10806000DEE775E80DE9A6E941EADCEA79EB17EC11
:10807000B6EC56EDF8ED9AEE3DEFE2EF87F02EF11B
:10808000D5F17DF227F3D1F37CF428F5D5F583F60D
:1080900032F7E1F791F842F9F4F9A7FA5AFB0EFC2E
:1080A000C3FC78FD2EFEE4FE9BFF53000B01C401D0
:1080B0007D023703F203AC0467052306DF069B0746
:1080C00058081509D209900A4D0B0B0CCA0C880DE3
:1080D000460E050FC40F831042110112C0127F1308
:1080E0003E14FD14BC157B163A17F817B71875190E
:1080F000331AF11AAF1B6C1C291DE61DA31E5F1F4E
:108100001A20D62091214B220523BE237724302527
:10811000E7259F2655270B28C1287529292ADD2AFE
:108120008F2B412CF22CA22D512E002FAD2F5A3027
:108130000631B0315A320333AB335234F8349C3504
:108140004036E23684372438C3386139FD39993AEC
:10815000333BCC3B633CFA3C8E3D223EB43E453F34
:10816000D43F6240EF407A4103428B421243964330
:108170001A449C441C459A45174693460C4784472D
:10818000FA476F48E2485349C2492F4A9B4A054B78
:108190006D4BD34B374C9A4CFA4C594DB64D114E52
:1081A000694EC04E154F684FB94F08505550A050FA
:1081B000E95030517451B751F75136527252AC52A6
:1081C000E5521A534E538053AF53DD530854315484
:1081D00057547C549E54BE54DC54F75411552855C2
:1081E0003C554F555F556D557955825589558E557E
:1081F000905590558E558A5583557A556F556155D2
:1082000051553E552A551255F954DD54BF549F54CB
:108210007C54575430540654DA53AB537B53475372
:108220001253DA52A05264522552E451A1515B51CB
:108230001351C9507D502E50DD4F8A4F344FDC4EC4
:10824000824E264EC74D664D034D9E4C364CCD4B4F
:10825000614BF34A824A104A9B492449AC48314851
:10826000B3473447B3462F46AA45224599440D44A7
:108270007F43F0425E42CA4134419D400340683F23
:10828000CA3E2B3E8A3DE73C423C9B3BF23A483A91
:108290009B39ED383E388C37D93624366D35B534B8
:1082A000FB333F338232C331023140307C2FB72E53
:1082B000F12D282D5F2C942BC72AF9292A2959281A
:1082C0008727B326DF250925312459237F22A421BE
:1082D000C820EB1F0C1F2D1E4C1D6A1C881BA41AE6
:1082E000BF19D918F2170B17221639154E1463133C
:1082F00077128A119D10AF0FC00ED00DE00CEF0B5E
:10830000FD0A0B0A1809250831073D0648055204E5
:108310005D03670270017A0082FF8BFE93FD9CFC77
:10832000A4FBABFAB3F9BAF8C2F7C9F6D0F5D7F4A3
:10833000DEF3E5F2EDF1F4F0FBEF03EF0AEE12ED00
:108340001AEC22EB2BEA34E93DE846E750E65AE521
:1083500065E470E37BE287E193E0A0DFAEDEBCDDA5
:10836000CBDCDADBEADAFBD90DD91FD832D746D617
:108370005AD570D486D39DD2B5D1CED0E8CF03CF15
:108380001FCE3CCD5BCC7ACB9ACABBC9DEC802C833
:1083900027C74DC675C59DC4C7C3F3C21FC24DC113
:1083A0007DC0AEBFE0BE14BE49BD80BCB8BBF2BA52
:1083B0002DBA6AB9A9B8E9B72AB76EB6B3B5FAB497
:1083C00043B48DB3D9B227B276B1C8B01BB070AF89
:1083D000C8AE20AE7BADD8AC37AC98ABFAAA5FAADA
:1083E000C6A92EA999A806A875A7E6A659A6CFA53D
:1083F00046A5C0A43BA4B9A339A3BCA240A2C7A16F
:1084000050A1DBA069A0F99F8B9F209FB79E509E33
:10841000EB9D899D299DCC9C719C199CC29B6F9B57
:108420001D9BCF9A829A389AF199AC9969992999AA
:10843000EC98B098789842980E98DD97AF9783970C
:108440005A9733970E97ED96CE96B19697967F965C
:108450006A96589648963B9630962896239620968C
:108460002096229627962E9638964596549666968E
:108470007A969196AB96C796E59606972A97509767
:108480007997A597D397039836986C98A498DE9817
:108490001C995B999D99E299299A739ABF9A0D9BB1
:1084A0005E9BB29B079C609CBA9C189D779DD99D52
:1084B0003D9EA49E0D9F789FE69F56A0C9A03DA11A
:1084C000B4A12DA2A9A227A3A7A329A4AEA434A531
:1084D000BDA548A6D5A665A7F6A78AA820A9B7A9CD
:1084E00051AAEDAA8BAB2BACCDAC71AD17AEBFAE24
:1084F00069AF14B0C2B072B123B2D6B28CB342B479
:10850000FBB4B6B572B630B7F0B7B1B874B939BA12
:10851000FFBAC7BB91BC5CBD29BEF7BEC7BF98C040
:108520006BC13FC214C3EBC3C4C49EC579C655C753
:1085300033C812C9F2C9D4CAB6CB9ACC7FCD65CEA6
:108540004DCF35D01ED109D2F4D2E1D3CED4BDD592
:10855000ACD69CD78DD87FD972DA66DB5ADC4FDD7A
:1085600045DE3BDF33E02BE123E21CE316E410E5BC
:108570000BE606E702E8FEE8FBE9F8EAF5EBF3ECC8
:10858000F1EDF0EEEEEFEDF0ECF1ECF2EBF3EBF4FD
:10859000EBF5EBF6EBF7EBF8EBF9EBFAEBFBEBFCBF
:1085A000EBFDEBFEEBFFEA00EA01E902E803E7047A
:1085B000E505E406E107DF08DC09D90AD50BD10C93
:1085C000CC0DC70EC20FBC10B511AE12A6139D1470
:1085D00094158A168017741868195C1A4E1B3F1C74
:1085E000301D201E0F1FFD1FEA20D621C122AC2303
:1085F00095247D2564264A272F281329F529D72A73
:10860000B72B962C732D502E2B2F0530DE30B53125
:108610008B32603333340535D535A43671373D3868
:108620000839D139983A5E3B223CE53CA63D663E8E
:10863000243FE03F9A4053410A42C04273432544DD
:10864000D54484453046DB4684472B48D04874499E
:10865000154AB54A534BEF4B894C204DB64D4B4E06
:10866000DD4E6D4FFB4F8750115199511F52A35250
:108670002553A45322549E5417558F5504567756AC
:10868000E8565757C4572F589758FD586159C35942
:10869000235A815ADC5A355B8C5BE15B335C845C2A
:1086A000D25C1E5D675DAF5DF45D375E775EB65E82
:1086B000F25E2C5F635F995FCC5FFD5F2B6057605C
:1086C0008160A960CF60F260136132614E616961BF
:1086D00081619661AA61BB61CA61D761E161EA61AA
:1086E000F061F361F561F461F261EC61E561DC6117
:1086F000D061C261B261A0618B6175615C614161F1
:1087000024610461E360BF609A60726048601C602D
:10871000EE5FBE5F8C5F575F215FE95EAE5E725EAB
:10872000335EF35DB05D6C5D255DDD5C935C465C46
:10873000F85BA85B565B025BAC5A545AFB599F59D5
:108740004259E35882581F58BB575557ED56835628
:108750001856AA553C55CB545954E5537053F8520A
:10876000805205528A510C518D500D508A4F074F3F
:10877000824EFB4D734DEA4C5F4CD34B454BB74A91
:10878000264A954902496D48D8474147A9461046AF
:108790007545DA443D449F4300435F42BE411B415F
:1087A0007840D33F2E3F873EDF3D373D8D3CE33B56
:1087B000373B8B3ADE3930398138D13721376F3644
:1087C000BD350A355734A233ED3238328131CA30E3
:1087D00013305B2FA22EE92D2F2D742CBA2BFE2ADD
:1087E000422A8629C9280C284F279126D3251425EB
:1087F00055249623D722172257219720D71F161FBB
:10880000551E951DD41C131C511B901ACF190E19FF
:108810004C188B17CA16081647158614C51304136F
:1088200043128311C2100210420F820EC20D030DBB
:10883000440C850BC60A080A4A098C08CF071207A0
:1088400056069A05DE0423046903AE02F5013C01D5
:108850008300CBFF13FF5CFEA6FDF0FC3BFC87FB17
:10886000D3FA20FA6DF9BBF80AF85AF7AAF6FBF525
:108870004DF59FF4F3F347F39CF2F2F148F1A0F0C9
:10888000F8EF51EFABEE06EE62EDBFEC1DEC7CEBCA
:10889000DBEA3CEA9DE900E964E8C8E72EE794E6F4
:1088A000FCE565E5CFE439E4A5E312E381E2F0E11C
:1088B00060E1D2E044E0B8DF2DDFA3DE1ADE92DD16
:1088C0000CDD86DC02DC80DBFEDA7DDAFED980D9C5
:1088D00003D988D80DD894D71CD7A6D631D6BDD504
:1088E0004AD5D8D468D4F9D38CD31FD3B4D24BD2C1
:1088F000E2D17BD116D1B1D04ED0ECCF8CCF2DCFE1
:10890000CFCE72CE17CEBDCD65CD0ECDB8CC63CC5B
:1089100010CCBFCB6ECB1FCBD1CA85CA3ACAF0C927
:10892000A8C961C91BC9D7C894C853C812C8D3C73E
:1089300096C75AC71FC7E5C6ADC676C640C60CC6A1
:10894000D9C5A8C577C548C51BC5EEC4C3C49AC45C
:1089500071C44AC424C400C4DCC3BAC39AC37AC372
:108960005CC33FC323C309C3F0C2D8C2C1C2ACC2F7
:1089700098C285C273C262C253C245C238C22CC2F9
:1089800022C218C210C209C203C2FEC1FAC1F8C194
:10899000F7C1F6C1F7C1F9C1FCC100C206C20CC2E1
:1089A00013C21CC225C230C23BC248C256C264C2F6
:1089B00074C285C296C2A9C2BDC2D1C2E7C2FDC2FD
:1089C00015C32DC346C361C37CC398C3B5C3D2C30B
:1089D000F1C310C431C452C474C497C4BBC4DFC44F
:1089E00004C52AC551C579C5A1C5CAC5F4C51FC6E8
:1089F0004AC676C6A3C6D0C6FFC62DC75DC78DC7FB
:108A0000BEC7EFC721C854C887C8BBC8F0C825C9AE
:108A10005BC991C9C8C9FFC937CA6FCAA8CAE2CA27
:108A20001BCB56CB91CBCCCB08CC44CC81CCBECC91
:108A3000FCCC3ACD78CDB7CDF7CD36CE76CEB7CE0D
:108A4000F7CE38CF7ACFBCCFFECF40D083D0C6D0C0
:108A500009D14DD191D1D5D119D25ED2A3D2E8D2CC
:108A60002DD373D3B9D3FFD345D48BD4D2D419D556
:108A700060D5A7D5EED535D67DD6C5D60CD754D77B
:108A80009CD7E4D72DD875D8BDD806D94ED997D95B
:108A9000E0D928DA71DABADA03DB4CDB95DBDDDB0F
:108AA00026DC6FDCB8DC01DD4ADD93DDDCDD25DEB4
:108AB0006EDEB7DE00DF48DF91DFDADF22E06BE059
:108AC000B3E0FCE044E18CE1D5E11DE265E2ADE21A
:108AD000F5E23CE384E3CCE313E45AE4A2E4E9E402
:108AE00030E577E5BDE504E64AE691E6D7E61DE721
:108AF00063E7A9E7EFE734E87AE8BFE804E949E982
:108B00008EE9D3E917EA5CEAA0EAE4EA28EB6BEB2A
:108B1000AFEBF3EB36EC79ECBCECFFEC41ED84ED24
:108B2000C6ED08EE4AEE8CEECEEE0FEF51EF92EF6F
:108B3000D3EF14F055F095F0D6F016F156F196F10A
:108B4000D6F116F255F295F2D4F213F352F391F3F3
:108B5000CFF30EF44CF48AF4C9F407F544F582F52A
:108B6000C0F5FDF53BF678F6B5F6F2F62FF76CF7A3
:108B7000A8F7E5F721F85EF89AF8D6F812F94EF959
:108B80008AF9C6F902FA3DFA79FAB4FAF0FA2BFB3F
:108B900066FBA2FBDDFB18FC53FC8EFCC9FC04FD4C
:108BA0003FFD7AFDB5FDEFFD2AFE65FEA0FEDAFE73
:108BB00015FF50FF8AFFC5FF00003A007500AF00A7
:108BC000EA0025015F019A01D50110024A028502DF
:108BD000C002FB0236037103AC03E70322045D0409
:108BE0009904D4040F054B058605C205FD05390619
:108BF0007506B106ED0629076507A107DE071A0805
:108C000057089308D0080D094A098709C409020AC0
:108C10003F0A7D0ABB0AF80A360B750BB30BF10B42
:108C2000300C6E0CAD0CEC0C2B0D6A0DAA0DE90D81
:108C3000290E690EA90EE90E290F6A0FAA0FEB0F74
:108C40002C106D10AE10F01031117311B511F71119
:108C500039127B12BE12001343138613C9130C146E
:108C600050149414D7141B155F15A315E8152C1672
:108C70007116B616FB1640178517CB171018561825
:108C80009C18E21828196E19B519FB19421A881A8E
:108C9000CF1A161B5D1BA51BEC1B331C7B1CC31CB6
:108CA0000A1D521D9A1DE21D2A1E731EBB1E031FA4
:108CB0004C1F941FDD1F25206E20B720FF20482168
:108CC0009121DA2123226C22B522FE224723902310
:108CD000D92322246A24B324FC2445258E25D725B4
:108CE0001F266826B126F92642278A27D2271B2865
:108CF0006328AB28F3283A298229CA29112A582A3D
:108D00009F2AE62A2D2B742BBA2B002C462C8C2C58
:108D1000D22C172D5C2DA12DE62D2A2E6E2EB22ED3
:108D2000F62E392F7C2FBF2F013043308530C730CE
:108D3000083148318931C931083248328732C53269
:108D4000033341337E33BB33F73333346E34A934CA
:108D5000E4341D3557359035C835003637366E3614
:108D6000A436DA360F3744377837AB37DE3710386A
:108D700041387238A238D23800392F395C398939F4
:108D8000B539E0390B3A353A5E3A863AAE3AD53AD9
:108D9000FB3A203B443B683B8B3BAD3BCE3BEF3B40
:108DA0000E3C2D3C4A3C673C833C9E3CB93CD23C4B
:108DB000EA3C023D183D2E3D423D563D693D7A3D1F
:108DC0008B3D9B3DA93DB73DC43DCF3DDA3DE33DE5
:108DD000EC3DF33DF93DFF3D033E063E083E093EB6
:108DE000083E073E053E013EFC3DF63DEF3DE73DBA
:108DF000DD3DD33DC73DBA3DAC3D9D3D8C3D7A3D0B
:108E0000673D533D3E3D273D0F3DF63CDC3CC03CBD
:108E1000A33C853C653C453C233CFF3BDB3BB53BF1
:108E20008E3B653B3C3B113BE43AB73A883A573AB4
:108E3000263AF339BF39893952391A39E038A53819
:108E400069382C38ED37AC376B372837E4369E3627
:108E500057360F36C5357A352E35E03491344034E7
:108E6000EF339C334733F1329A324232E8318D315D
:108E70003031D23073301330B12F4E2FE92E842E83
:108E80001D2EB42D4B2DE02C732C062C972B272B4D
:108E9000B52A422ACE295929E3286B28F2277727B9
:108EA000FC267F260126822501257F24FD237923A8
:108EB000F3226D22E5215C21D2204720BB1F2D1F0C
:108EC0009F1E0F1E7E1DED1C5A1CC61B301B9A1ABE
:108ED000031A6B19D11837189B17FF166216C315A2
:108EE00024158314E21340139D12F9115411AE108E
:108EF00007105F0FB70E0D0E630DB80C0C0C600B56
:108F0000B20A040A5509A508F50744079206DF05C9
:108F10002C057804C4030F035902A301EC003400AC
:108F20007CFFC3FE0AFE51FD96FCDCFB21FB65FACB
:108F3000A9F9EDF830F873F7B5F6F7F539F57AF4E5
:108F4000BBF3FCF23DF27DF1BDF0FDEF3DEF7CEEB9
:108F5000BCEDFBEC3AEC79EBB8EAF7E935E974E8FB
:108F6000B3E7F1E630E66FE5AEE4ECE32BE36AE26B
:108F7000AAE1E9E028E068DFA8DEE8DD28DD69DCB9
:108F8000AADBEBDA2CDA6ED9B0D8F3D736D779D69C
:108F9000BDD501D545D48BD3D0D216D25DD1A4D0C6
:108FA000ECCF35CF7ECEC7CD12CD5DCCA8CBF5CAE8
:108FB00042CA90C9DEC82EC87EC7CFC621C674C5B6
:108FC000C8C41CC472C3C8C220C278C1D1C02CC0DE
:108FD00087BFE4BE41BEA0BDFFBC60BCC2BB25BB19
:108FE0008ABAEFB956B9BEB827B892B7FDB66AB615
:108FF000D9B548B5BAB42CB4A0B315B38CB204B289
:109000007DB1F8B075B0F2AF72AFF3AE75AEFAAD38
:109010007FAD07AD8FAC1AACA6AB34ABC3AA55AAD3
:10902000E7A97CA912A9AAA844A8E0A77DA71CA724
:10903000BDA660A604A6ABA553A5FDA4A9A457A4EC
:1090400007A4B9A36CA322A3DAA293A24FA20CA2F5
:10905000CCA18DA151A116A1DEA0A8A073A041A012
:1090600011A0E39FB79F8D9F659F409F1C9FFB9E14
:10907000DB9EBE9EA39E8A9E749E5F9E4D9E3D9EDD
:109080002F9E239E1A9E139E0D9E0B9E0A9E0C9E43
:109090000F9E159E1E9E289E359E449E559E699E3F
:1090A0007E9E969EB19ECD9EEC9E0D9F309F569FBC
:1090B0007E9FA89FD49F02A033A066A09CA0D3A0AF
:1090C0000DA149A188A1C8A10BA250A298A2E1A21A
:1090D0002DA37BA3CCA31EA473A4CAA423A57EA501
:1090E000DCA53CA69EA602A768A7D0A73BA8A8A877
:1090F00017A988A9FBA970AAE8AA61ABDDAB5BAC94
:10910000DAAC5CADE0AD66AEEEAE78AF04B092B076
:1091100022B1B4B149B2DFB276B310B4ACB44AB53F
:10912000EAB58BB62FB7D4B77BB824B9CFB97BBA21
:109130002ABBDABB8CBC3FBDF5BDACBE65BF1FC052
:10914000DBC099C159C21AC3DDC3A1C467C52EC60D
:10915000F7C6C2C78EC85BC92ACAFACACCCB9FCC95
:1091600074CD4ACE21CFFACFD4D0AFD18CD269D32F
:1091700048D428D50AD6ECD6D0D7B5D89BD982DA30
:109180006ADB53DC3EDD29DE15DF02E0F0E0DFE1E3
:10919000CFE2C0E3B1E4A3E597E68BE77FE875E9AA
:1091A0006BEA62EB59EC51ED4AEE43EF3DF038F1DA
:1091B00033F22EF32AF426F523F620F71EF81BF9D6
:1091C0001AFA18FB17FC16FD15FE15FF1400140102
:1091D00014021403140414051406140714081409C3
:1091E000140A140B140C130D130E120F11100F117F
:1091F0000E120C130A14071504160117FD17F9189F
:10920000F419EF1AE91BE31CDC1DD41ECC1FC4208B
:10921000BA21B022A52399248D25802672276328A0
:109220005329422A312B1E2C0B2DF62DE12ECA2F4D
:10923000B2309A318032653349342B350D36ED36F4
:10924000CC37AA388639613A3B3B143CEB3CC03DF5
:10925000943E673F38400841D641A3426E433844AC
:109260000045C6458B464E470F48CF488D49494A71
:10927000044BBD4B734C294DDC4D8D4E3D4FEB4F98
:1092800096504051E8518E523253D4537454125573
:10929000AE554856DF56755709589A582A59B75946
:1092A000425ACB5A515BD65B585CD85C565DD25D56
:1092B0004B5EC25E365FA95F19608760F2605B61DA
:1092C000C26126628862E76245639F63F8634D640A
:1092D000A164F26440658C65D6651D666266A4660D
:1092E000E36621675B679367C967FC672C685A6808
:1092F0008668AF68D568F9681A69386954696E6913
:1093000085699969AB69BA69C769D169D869DD6945
:10931000DF69DF69DC69D769CF69C469B769A769A3
:109320009569806968694E6931691269F168CC682C
:10933000A5687C6850682268F167BD6787674F67DA
:109340001367D666966653660E66C7657D6530659B
:10935000E26490643D64E6638E633363D662766252
:109360001462AF614861DF6074600660965F245FDD
:10937000AF5E385EBF5D435DC65C465CC45B3F5B11
:10938000B95A305AA65919598A58F9576657D156B9
:109390003956A05505556754C85327538452DF5199
:1093A00037518F50E44F374F894ED84D264D724C70
:1093B000BC4B054B4C4A9149D548164856479546F3
:1093C000D2450D4547447F43B642EB411F415140D2
:1093D000823FB23EE03D0C3D383C623B8A3AB239B6
:1093E000D838FD372137443665358534A433C33248
:1093F000E031FC301730312F4A2E622D792C8F2B23
:10940000A52AB929CD28E027F226042615252524EA
:109410003423432251215F206C1F781E841D8F1C32
:109420009A1BA51AAF19B918C217CB16D415DD149B
:10943000E513ED12F511FC1004100B0F120E1A0DAE
:10944000210C280B2F0A36093D0845074C06540508
:109450005B0463036C0274017D0085FF8FFE98FD41
:10946000A2FCADFBB7FAC2F9CEF8DAF7E7F6F4F5ED
:1094700002F510F41FF32FF23FF150F062EF75EE9A
:1094800088ED9CECB1EBC6EADDE9F4E80DE826E7EF
:1094900040E65BE577E495E3B3E2D2E1F3E014E084
:1094A00037DF5BDE80DDA6DCCEDBF6DA20DA4CD9F6
:1094B00078D8A6D7D5D606D638D56BD4A0D3D7D2F0
:1094C0000ED248D183D0BFCFFDCE3CCE7DCDC0CC17
:1094D00004CC4ACB92CADBC926C973C8C1C712C71C
:1094E00064C6B7C50DC564C4BDC318C375C2D4C1B5
:1094F00035C197C0FCBF62BFCBBE35BEA1BD0FBD9D
:1095000080BCF2BB66BBDDBA55BAD0B94CB9CBB89A
:109510004CB8CEB753B7DBB664B6EFB57DB50CB576
:109520009EB432B4C9B361B3FCB299B238B2D9B106
:109530007DB123B1CBB075B022B0D1AF82AF36AF21
:10954000ECAEA4AE5EAE1BAEDAAD9BAD5FAD25ADAD
:10955000EDACB8AC84AC54AC25ACF9ABCFABA8AB9C
:1095600083AB60AB40AB22AB06ABEDAAD5AAC1AAD8
:10957000AEAA9EAA90AA85AA7CAA75AA71AA6FAA69
:109580006FAA71AA76AA7DAA86AA92AAA0AAB0AA50
:10959000C3AAD7AAEEAA08AB23AB41AB61AB83AB9E
:1095A000A8ABCEABF7AB22AC50AC7FACB1ACE5AC6A
:1095B0001AAD53AD8DADC9AD08AE48AE8BAECFAED2
:1095C00016AF5FAFAAAFF7AF46B097B0EAB03FB102
:1095D00096B1EEB149B2A6B205B365B3C8B32CB427
:1095E00092B4FAB464B5D0B53DB6ACB61DB790B779
:1095F00005B87BB8F3B86CB9E8B965BAE3BA63BB30
:10960000E5BB69BCEDBC74BDFCBD85BE10BF9DBF94
:109610002BC0BAC04BC1DDC171C205C39CC333C4EA
:10962000CCC466C502C69EC63CC7DBC77BC81DC985
:10963000BFC963CA07CBADCB54CCFCCCA5CD4FCEB4
:10964000F9CEA5CF52D0FFD0AED15DD20DD3BED3CF
:1096500070D422D5D6D58AD63ED7F4D7AAD860D929
:1096600018DACFDA88DB41DCFADCB4DD6EDE29DF24
:10967000E5DFA0E05CE119E2D6E293E350E40EE519
:10968000CCE58AE648E707E8C5E884E943EA02EB67
:10969000C1EB80EC3FEDFEEDBDEE7CEF3BF0FAF070
:1096A000B9F177F235F3F4F3B2F46FF52DF6EAF68B
:1096B000A7F764F820F9DCF998FA53FB0DFCC8FC15
:1096C00082FD3BFEF4FEACFF64001B01D10187026A
:1096D0003C03F103A50458050B06BD066E071E08E2
:1096E000CD087C092A0AD70A830B2E0CD80C820DD0
:1096F0002A0ED10E780F1D10C21065110712A91283
:109700004913E81386142315BE155916F2168A1745
:109710002118B6184A19DE196F1A001B8F1B1D1C61
:10972000A91C341DBE1D461ECD1E531FD71F592018
:10973000DB205A21D9215522D1224A23C32339249F
:10974000AE242225942504267326E0264C27B6272E
:109750001E288528EA284D29AF290F2A6E2ACA2AF1
:10976000252B7F2BD62B2C2C802CD22C232D722D0D
:10977000BF2D0A2E542E9C2EE22E262F692FA92FA4
:10978000E82F253061309A30D23008313C316E31CB
:109790009F31CD31FA3125324E3276329B32BF3293
:1097A000E13201331F333B3356336F3386339B3300
:1097B000AE33C033CF33DD33E933F333FC3302341C
:1097C00007340A340C340B3409340534FF33F733CF
:1097D000EE33E333D633C733B733A53391337B331B
:1097E00064334B3330331433F632D632B5329232DF
:1097F0006D3247321F32F631CA319E316F313F31FF
:109800000E31DB30A63070303830FF2FC42F882F58
:109810004A2F0B2FCB2E882E452E002EBA2D722DBF
:10982000292DDE2C922C452CF72BA72B562B032B06
:10983000AF2A5A2A042AAD295429FA289F284328F6
:10984000E62787272727C726652602269E2539254E
:10985000D3246C2404249B233123C6225A22ED21D5
:109860007F211121A1203120C01F4E1FDB1E681E49
:10987000F41D7F1D091D931C1C1CA41B2C1BB31A5B
:10988000391ABF194519C9184D18D1175417D716C9
:109890005916DB155D15DE145E14DE135E13DE1241
:1098A0005D12DC115B11D9105810D60F530FD10E79
:1098B0004F0ECC0D490DC60C430CC00B3D0BBA0A24
:1098C000370AB4093109AE082B08A9072607A406F0
:1098D00021069F051D059B04190498031703960292
:1098E0001502950115019600170098FF19FF9BFEC0
:1098F0001EFEA1FD24FDA8FC2CFCB1FB37FBBDFA2C
:1099000043FACAF952F9DAF863F8EDF778F703F792
:109910008EF61BF6A8F536F5C5F454F4E5F376F3A8
:1099200008F39BF22EF2C3F158F1EFF086F01EF02F
:10993000B7EF51EFECEE88EE25EEC4ED63ED03EDED
:10994000A4EC46ECEAEB8EEB33EBDAEA82EA2BEAA4
:10995000D5E980E92CE9DAE889E839E8EAE79CE723
:1099600050E704E7BBE672E62BE6E4E5A0E55CE53C
:109970001AE5D9E499E45BE41EE4E3E3A9E370E3C8
:1099800038E302E3CDE29AE268E238E208E2DBE1A2
:10999000AEE183E15AE132E10BE1E6E0C2E0A0E0B2
:1099A0007FE060E042E025E00AE0F1DFD9DFC2DFDE
:1099B000ADDF99DF87DF76DF67DF59DF4DDF42DF1D
:1099C00039DF31DF2BDF26DF22DF20DF20DF21DF61
:1099D00023DF27DF2DDF34DF3CDF46DF51DF5EDFB3
:1099E0006CDF7CDF8DDFA0DFB4DFC9DFE0DFF8DF15
:1099F00012E02DE04AE068E087E0A8E0CBE0EEE08E
:109A000013E13AE161E18AE1B5E1E1E10EE23CE234
:109A10006CE29DE2D0E204E339E36FE3A7E3E0E325
:109A20001AE455E492E4D0E40FE54FE591E5D3E57F
:109A300017E65CE6A3E6EAE633E77CE7C7E713E868
:109A400060E8AEE8FDE84DE99FE9F1E944EA98EA0B
:109A5000EEEA44EB9BEBF4EB4DECA7EC02ED5EED94
:109A6000BBED18EE77EED6EE36EF97EFF9EF5CF040
:109A7000BFF024F189F1EEF155F2BCF223F38CF33F
:109A8000F5F35FF4C9F434F5A0F50CF678F6E6F6D4
:109A900053F7C2F731F8A0F810F980F9F0F961FA3C
:109AA000D3FA45FBB7FB29FC9CFC0FFD83FDF6FDBB
:109AB0006AFEDFFE53FFC8FF3D00B20027019C0194
:109AC00012028802FD027303E9035F04D5044B050B
:109AD000C0053606AC06220798070D088308F8086B
